{
  "contractName": "UpmAlumnos",
  "abi": [
    {
      "inputs": [],
      "payable": false,
      "stateMutability": "nonpayable",
      "type": "constructor"
    },
    {
      "constant": true,
      "inputs": [
        {
          "internalType": "uint256",
          "name": "",
          "type": "uint256"
        }
      ],
      "name": "listaAlumnos",
      "outputs": [
        {
          "internalType": "address",
          "name": "",
          "type": "address"
        }
      ],
      "payable": false,
      "stateMutability": "view",
      "type": "function"
    },
    {
      "constant": true,
      "inputs": [
        {
          "internalType": "address",
          "name": "",
          "type": "address"
        }
      ],
      "name": "mapAlumnosAddr",
      "outputs": [
        {
          "internalType": "address",
          "name": "addrEthAlum",
          "type": "address"
        },
        {
          "internalType": "uint256",
          "name": "indexAlum",
          "type": "uint256"
        },
        {
          "internalType": "string",
          "name": "nombre",
          "type": "string"
        },
        {
          "internalType": "string",
          "name": "apellidos",
          "type": "string"
        },
        {
          "internalType": "string",
          "name": "dni",
          "type": "string"
        },
        {
          "internalType": "string",
          "name": "correoUpm",
          "type": "string"
        },
        {
          "internalType": "uint32",
          "name": "telefMovil",
          "type": "uint32"
        },
        {
          "internalType": "int256",
          "name": "fechaNac",
          "type": "int256"
        },
        {
          "internalType": "string",
          "name": "idUpm",
          "type": "string"
        }
      ],
      "payable": false,
      "stateMutability": "view",
      "type": "function"
    },
    {
      "constant": true,
      "inputs": [],
      "name": "numAlumnos",
      "outputs": [
        {
          "internalType": "uint256",
          "name": "",
          "type": "uint256"
        }
      ],
      "payable": false,
      "stateMutability": "view",
      "type": "function"
    },
    {
      "constant": true,
      "inputs": [],
      "name": "owner",
      "outputs": [
        {
          "internalType": "address",
          "name": "",
          "type": "address"
        }
      ],
      "payable": false,
      "stateMutability": "view",
      "type": "function"
    },
    {
      "constant": false,
      "inputs": [
        {
          "internalType": "address",
          "name": "_newOwner",
          "type": "address"
        }
      ],
      "name": "actualizarOwner",
      "outputs": [],
      "payable": false,
      "stateMutability": "nonpayable",
      "type": "function"
    },
    {
      "constant": true,
      "inputs": [],
      "name": "miDireccion",
      "outputs": [
        {
          "internalType": "address",
          "name": "_miDireccion",
          "type": "address"
        }
      ],
      "payable": false,
      "stateMutability": "view",
      "type": "function"
    },
    {
      "constant": true,
      "inputs": [],
      "name": "alumnosLength",
      "outputs": [
        {
          "internalType": "uint256",
          "name": "_alumnosLength",
          "type": "uint256"
        }
      ],
      "payable": false,
      "stateMutability": "view",
      "type": "function"
    },
    {
      "constant": false,
      "inputs": [
        {
          "internalType": "address",
          "name": "_addrEthAlum",
          "type": "address"
        },
        {
          "internalType": "string",
          "name": "_nombre",
          "type": "string"
        },
        {
          "internalType": "string",
          "name": "_apellidos",
          "type": "string"
        },
        {
          "internalType": "string",
          "name": "_dni",
          "type": "string"
        },
        {
          "internalType": "string",
          "name": "_correoUpm",
          "type": "string"
        },
        {
          "internalType": "uint32",
          "name": "_telefMovil",
          "type": "uint32"
        },
        {
          "internalType": "int256",
          "name": "_fechaNac",
          "type": "int256"
        },
        {
          "internalType": "string",
          "name": "_idUpm",
          "type": "string"
        }
      ],
      "name": "crearAlumno",
      "outputs": [
        {
          "internalType": "uint256",
          "name": "_indexAlum",
          "type": "uint256"
        }
      ],
      "payable": false,
      "stateMutability": "nonpayable",
      "type": "function"
    },
    {
      "constant": true,
      "inputs": [
        {
          "internalType": "address",
          "name": "_addrEthAlum",
          "type": "address"
        }
      ],
      "name": "leerAlumnoAddr",
      "outputs": [
        {
          "internalType": "uint256",
          "name": "_indexAlum",
          "type": "uint256"
        },
        {
          "internalType": "string",
          "name": "_nombre",
          "type": "string"
        },
        {
          "internalType": "string",
          "name": "_apellidos",
          "type": "string"
        },
        {
          "internalType": "string",
          "name": "_dni",
          "type": "string"
        },
        {
          "internalType": "string",
          "name": "_correoUpm",
          "type": "string"
        },
        {
          "internalType": "uint32",
          "name": "_telefMovil",
          "type": "uint32"
        },
        {
          "internalType": "int256",
          "name": "_fechaNac",
          "type": "int256"
        },
        {
          "internalType": "string",
          "name": "_idUpm",
          "type": "string"
        }
      ],
      "payable": false,
      "stateMutability": "view",
      "type": "function"
    },
    {
      "constant": false,
      "inputs": [
        {
          "internalType": "address",
          "name": "_addrEthAlum",
          "type": "address"
        },
        {
          "internalType": "string",
          "name": "_nombre",
          "type": "string"
        },
        {
          "internalType": "string",
          "name": "_apellidos",
          "type": "string"
        },
        {
          "internalType": "string",
          "name": "_dni",
          "type": "string"
        },
        {
          "internalType": "string",
          "name": "_correoUpm",
          "type": "string"
        },
        {
          "internalType": "uint32",
          "name": "_telefMovil",
          "type": "uint32"
        },
        {
          "internalType": "int256",
          "name": "_fechaNac",
          "type": "int256"
        },
        {
          "internalType": "string",
          "name": "_idUpm",
          "type": "string"
        }
      ],
      "name": "actualizarAlumnoAddr",
      "outputs": [],
      "payable": false,
      "stateMutability": "nonpayable",
      "type": "function"
    },
    {
      "constant": false,
      "inputs": [
        {
          "internalType": "address",
          "name": "_addrEthAlum",
          "type": "address"
        }
      ],
      "name": "borrarAlumnoAddr",
      "outputs": [],
      "payable": false,
      "stateMutability": "nonpayable",
      "type": "function"
    }
  ],
  "bytecode": "0x608060405234801561001057600080fd5b50336000806101000a81548173ffffffffffffffffffffffffffffffffffffffff021916908373ffffffffffffffffffffffffffffffffffffffff1602179055506126a0806100606000396000f3fe608060405234801561001057600080fd5b50600436106100a95760003560e01c80634e1c8b4f116100715780634e1c8b4f146107a5578063695ef5da14610a33578063821bbe2914610a7d5780638da5cb5b14610ac1578063a930dbb514610b0b578063aad90dce14610e5d576100a9565b806304e820ca146100ae57806314fb334b146100f25780631d5955ae146103b357806321fc4960146103d15780633c02117d1461043f575b600080fd5b6100f0600480360360208110156100c457600080fd5b81019080803573ffffffffffffffffffffffffffffffffffffffff169060200190929190505050610e7b565b005b6101346004803603602081101561010857600080fd5b81019080803573ffffffffffffffffffffffffffffffffffffffff169060200190929190505050610f63565b604051808a73ffffffffffffffffffffffffffffffffffffffff1673ffffffffffffffffffffffffffffffffffffffff168152602001898152602001806020018060200180602001806020018863ffffffff1663ffffffff1681526020018781526020018060200186810386528d818151815260200191508051906020019080838360005b838110156101d45780820151818401526020810190506101b9565b50505050905090810190601f1680156102015780820380516001836020036101000a031916815260200191505b5086810385528c818151815260200191508051906020019080838360005b8381101561023a57808201518184015260208101905061021f565b50505050905090810190601f1680156102675780820380516001836020036101000a031916815260200191505b5086810384528b818151815260200191508051906020019080838360005b838110156102a0578082015181840152602081019050610285565b50505050905090810190601f1680156102cd5780820380516001836020036101000a031916815260200191505b5086810383528a818151815260200191508051906020019080838360005b838110156103065780820151818401526020810190506102eb565b50505050905090810190601f1680156103335780820380516001836020036101000a031916815260200191505b50868103825287818151815260200191508051906020019080838360005b8381101561036c578082015181840152602081019050610351565b50505050905090810190601f1680156103995780820380516001836020036101000a031916815260200191505b509e50505050505050505050505050505060405180910390f35b6103bb6112d9565b6040518082815260200191505060405180910390f35b6103fd600480360360208110156103e757600080fd5b81019080803590602001909291905050506112e6565b604051808273ffffffffffffffffffffffffffffffffffffffff1673ffffffffffffffffffffffffffffffffffffffff16815260200191505060405180910390f35b61078f600480360361010081101561045657600080fd5b81019080803573ffffffffffffffffffffffffffffffffffffffff1690602001909291908035906020019064010000000081111561049357600080fd5b8201836020820111156104a557600080fd5b803590602001918460018302840111640100000000831117156104c757600080fd5b91908080601f016020809104026020016040519081016040528093929190818152602001838380828437600081840152601f19601f8201169050808301925050505050505091929192908035906020019064010000000081111561052a57600080fd5b82018360208201111561053c57600080fd5b8035906020019184600183028401116401000000008311171561055e57600080fd5b91908080601f016020809104026020016040519081016040528093929190818152602001838380828437600081840152601f19601f820116905080830192505050505050509192919290803590602001906401000000008111156105c157600080fd5b8201836020820111156105d357600080fd5b803590602001918460018302840111640100000000831117156105f557600080fd5b91908080601f016020809104026020016040519081016040528093929190818152602001838380828437600081840152601f19601f8201169050808301925050505050505091929192908035906020019064010000000081111561065857600080fd5b82018360208201111561066a57600080fd5b8035906020019184600183028401116401000000008311171561068c57600080fd5b91908080601f016020809104026020016040519081016040528093929190818152602001838380828437600081840152601f19601f820116905080830192505050505050509192919290803563ffffffff169060200190929190803590602001909291908035906020019064010000000081111561070957600080fd5b82018360208201111561071b57600080fd5b8035906020019184600183028401116401000000008311171561073d57600080fd5b91908080601f016020809104026020016040519081016040528093929190818152602001838380828437600081840152601f19601f820116905080830192505050505050509192919290505050611322565b6040518082815260200191505060405180910390f35b6107e7600480360360208110156107bb57600080fd5b81019080803573ffffffffffffffffffffffffffffffffffffffff16906020019092919050505061170b565b60405180898152602001806020018060200180602001806020018863ffffffff1663ffffffff1681526020018781526020018060200186810386528d818151815260200191508051906020019080838360005b8381101561085557808201518184015260208101905061083a565b50505050905090810190601f1680156108825780820380516001836020036101000a031916815260200191505b5086810385528c818151815260200191508051906020019080838360005b838110156108bb5780820151818401526020810190506108a0565b50505050905090810190601f1680156108e85780820380516001836020036101000a031916815260200191505b5086810384528b818151815260200191508051906020019080838360005b83811015610921578082015181840152602081019050610906565b50505050905090810190601f16801561094e5780820380516001836020036101000a031916815260200191505b5086810383528a818151815260200191508051906020019080838360005b8381101561098757808201518184015260208101905061096c565b50505050905090810190601f1680156109b45780820380516001836020036101000a031916815260200191505b50868103825287818151815260200191508051906020019080838360005b838110156109ed5780820151818401526020810190506109d2565b50505050905090810190601f168015610a1a5780820380516001836020036101000a031916815260200191505b509d505050505050505050505050505060405180910390f35b610a3b611d3b565b604051808273ffffffffffffffffffffffffffffffffffffffff1673ffffffffffffffffffffffffffffffffffffffff16815260200191505060405180910390f35b610abf60048036036020811015610a9357600080fd5b81019080803573ffffffffffffffffffffffffffffffffffffffff169060200190929190505050611d43565b005b610ac9612048565b604051808273ffffffffffffffffffffffffffffffffffffffff1673ffffffffffffffffffffffffffffffffffffffff16815260200191505060405180910390f35b610e5b6004803603610100811015610b2257600080fd5b81019080803573ffffffffffffffffffffffffffffffffffffffff16906020019092919080359060200190640100000000811115610b5f57600080fd5b820183602082011115610b7157600080fd5b80359060200191846001830284011164010000000083111715610b9357600080fd5b91908080601f016020809104026020016040519081016040528093929190818152602001838380828437600081840152601f19601f82011690508083019250505050505050919291929080359060200190640100000000811115610bf657600080fd5b820183602082011115610c0857600080fd5b80359060200191846001830284011164010000000083111715610c2a57600080fd5b91908080601f016020809104026020016040519081016040528093929190818152602001838380828437600081840152601f19601f82011690508083019250505050505050919291929080359060200190640100000000811115610c8d57600080fd5b820183602082011115610c9f57600080fd5b80359060200191846001830284011164010000000083111715610cc157600080fd5b91908080601f016020809104026020016040519081016040528093929190818152602001838380828437600081840152601f19601f82011690508083019250505050505050919291929080359060200190640100000000811115610d2457600080fd5b820183602082011115610d3657600080fd5b80359060200191846001830284011164010000000083111715610d5857600080fd5b91908080601f016020809104026020016040519081016040528093929190818152602001838380828437600081840152601f19601f820116905080830192505050505050509192919290803563ffffffff1690602001909291908035906020019092919080359060200190640100000000811115610dd557600080fd5b820183602082011115610de757600080fd5b80359060200191846001830284011164010000000083111715610e0957600080fd5b91908080601f016020809104026020016040519081016040528093929190818152602001838380828437600081840152601f19601f82011690508083019250505050505050919291929050505061206d565b005b610e6561245f565b6040518082815260200191505060405180910390f35b6000809054906101000a900473ffffffffffffffffffffffffffffffffffffffff1673ffffffffffffffffffffffffffffffffffffffff163373ffffffffffffffffffffffffffffffffffffffff1614610f20576040517f08c379a000000000000000000000000000000000000000000000000000000000815260040180806020018281038252602b8152602001806125f7602b913960400191505060405180910390fd5b806000806101000a81548173ffffffffffffffffffffffffffffffffffffffff021916908373ffffffffffffffffffffffffffffffffffffffff16021790555050565b60036020528060005260406000206000915090508060000160009054906101000a900473ffffffffffffffffffffffffffffffffffffffff1690806001015490806002018054600181600116156101000203166002900480601f01602080910402602001604051908101604052809291908181526020018280546001816001161561010002031660029004801561103b5780601f106110105761010080835404028352916020019161103b565b820191906000526020600020905b81548152906001019060200180831161101e57829003601f168201915b505050505090806003018054600181600116156101000203166002900480601f0160208091040260200160405190810160405280929190818152602001828054600181600116156101000203166002900480156110d95780601f106110ae576101008083540402835291602001916110d9565b820191906000526020600020905b8154815290600101906020018083116110bc57829003601f168201915b505050505090806004018054600181600116156101000203166002900480601f0160208091040260200160405190810160405280929190818152602001828054600181600116156101000203166002900480156111775780601f1061114c57610100808354040283529160200191611177565b820191906000526020600020905b81548152906001019060200180831161115a57829003601f168201915b505050505090806005018054600181600116156101000203166002900480601f0160208091040260200160405190810160405280929190818152602001828054600181600116156101000203166002900480156112155780601f106111ea57610100808354040283529160200191611215565b820191906000526020600020905b8154815290600101906020018083116111f857829003601f168201915b5050505050908060060160009054906101000a900463ffffffff1690806007015490806008018054600181600116156101000203166002900480601f0160208091040260200160405190810160405280929190818152602001828054600181600116156101000203166002900480156112cf5780601f106112a4576101008083540402835291602001916112cf565b820191906000526020600020905b8154815290600101906020018083116112b257829003601f168201915b5050505050905089565b6000600280549050905090565b600281815481106112f357fe5b906000526020600020016000915054906101000a900473ffffffffffffffffffffffffffffffffffffffff1681565b60008060009054906101000a900473ffffffffffffffffffffffffffffffffffffffff1673ffffffffffffffffffffffffffffffffffffffff163373ffffffffffffffffffffffffffffffffffffffff16146113c9576040517f08c379a000000000000000000000000000000000000000000000000000000000815260040180806020018281038252602b8152602001806125f7602b913960400191505060405180910390fd5b600073ffffffffffffffffffffffffffffffffffffffff16600360008b73ffffffffffffffffffffffffffffffffffffffff1673ffffffffffffffffffffffffffffffffffffffff16815260200190815260200160002060000160009054906101000a900473ffffffffffffffffffffffffffffffffffffffff1673ffffffffffffffffffffffffffffffffffffffff16146114cd576040517f08c379a000000000000000000000000000000000000000000000000000000000815260040180806020018281038252601f8152602001807f6372656172416c756d6e6f202d20416c756d6e6f2079612063726561646f2e0081525060200191505060405180910390fd5b60028054905090506040518061012001604052808a73ffffffffffffffffffffffffffffffffffffffff1681526020018281526020018981526020018881526020018781526020018681526020018563ffffffff16815260200184815260200183815250600360008b73ffffffffffffffffffffffffffffffffffffffff1673ffffffffffffffffffffffffffffffffffffffff16815260200190815260200160002060008201518160000160006101000a81548173ffffffffffffffffffffffffffffffffffffffff021916908373ffffffffffffffffffffffffffffffffffffffff1602179055506020820151816001015560408201518160020190805190602001906115dd929190612465565b5060608201518160030190805190602001906115fa929190612465565b506080820151816004019080519060200190611617929190612465565b5060a0820151816005019080519060200190611634929190612465565b5060c08201518160060160006101000a81548163ffffffff021916908363ffffffff16021790555060e08201518160070155610100820151816008019080519060200190611683929190612465565b5090505060028990806001815401808255809150509060018203906000526020600020016000909192909190916101000a81548173ffffffffffffffffffffffffffffffffffffffff021916908373ffffffffffffffffffffffffffffffffffffffff1602179055505060016000815480929190600101919050555098975050505050505050565b60006060806060806000806060600073ffffffffffffffffffffffffffffffffffffffff16600360008b73ffffffffffffffffffffffffffffffffffffffff1673ffffffffffffffffffffffffffffffffffffffff16815260200190815260200160002060000160009054906101000a900473ffffffffffffffffffffffffffffffffffffffff1673ffffffffffffffffffffffffffffffffffffffff161415611800576040517f08c379a000000000000000000000000000000000000000000000000000000000815260040180806020018281038252602281526020018061264a6022913960400191505060405180910390fd5b600360008a73ffffffffffffffffffffffffffffffffffffffff1673ffffffffffffffffffffffffffffffffffffffff168152602001908152602001600020600101549750600360008a73ffffffffffffffffffffffffffffffffffffffff1673ffffffffffffffffffffffffffffffffffffffff1681526020019081526020016000206002018054600181600116156101000203166002900480601f01602080910402602001604051908101604052809291908181526020018280546001816001161561010002031660029004801561191b5780601f106118f05761010080835404028352916020019161191b565b820191906000526020600020905b8154815290600101906020018083116118fe57829003601f168201915b50505050509650600360008a73ffffffffffffffffffffffffffffffffffffffff1673ffffffffffffffffffffffffffffffffffffffff1681526020019081526020016000206003018054600181600116156101000203166002900480601f0160208091040260200160405190810160405280929190818152602001828054600181600116156101000203166002900480156119f85780601f106119cd576101008083540402835291602001916119f8565b820191906000526020600020905b8154815290600101906020018083116119db57829003601f168201915b50505050509550600360008a73ffffffffffffffffffffffffffffffffffffffff1673ffffffffffffffffffffffffffffffffffffffff1681526020019081526020016000206004018054600181600116156101000203166002900480601f016020809104026020016040519081016040528092919081815260200182805460018160011615610100020316600290048015611ad55780601f10611aaa57610100808354040283529160200191611ad5565b820191906000526020600020905b815481529060010190602001808311611ab857829003601f168201915b50505050509450600360008a73ffffffffffffffffffffffffffffffffffffffff1673ffffffffffffffffffffffffffffffffffffffff1681526020019081526020016000206005018054600181600116156101000203166002900480601f016020809104026020016040519081016040528092919081815260200182805460018160011615610100020316600290048015611bb25780601f10611b8757610100808354040283529160200191611bb2565b820191906000526020600020905b815481529060010190602001808311611b9557829003601f168201915b50505050509350600360008a73ffffffffffffffffffffffffffffffffffffffff1673ffffffffffffffffffffffffffffffffffffffff16815260200190815260200160002060060160009054906101000a900463ffffffff169250600360008a73ffffffffffffffffffffffffffffffffffffffff1673ffffffffffffffffffffffffffffffffffffffff168152602001908152602001600020600701549150600360008a73ffffffffffffffffffffffffffffffffffffffff1673ffffffffffffffffffffffffffffffffffffffff1681526020019081526020016000206008018054600181600116156101000203166002900480601f016020809104026020016040519081016040528092919081815260200182805460018160011615610100020316600290048015611d295780601f10611cfe57610100808354040283529160200191611d29565b820191906000526020600020905b815481529060010190602001808311611d0c57829003601f168201915b50505050509050919395975091939597565b600033905090565b6000809054906101000a900473ffffffffffffffffffffffffffffffffffffffff1673ffffffffffffffffffffffffffffffffffffffff163373ffffffffffffffffffffffffffffffffffffffff1614611de8576040517f08c379a000000000000000000000000000000000000000000000000000000000815260040180806020018281038252602b8152602001806125f7602b913960400191505060405180910390fd5b600073ffffffffffffffffffffffffffffffffffffffff16600360008373ffffffffffffffffffffffffffffffffffffffff1673ffffffffffffffffffffffffffffffffffffffff16815260200190815260200160002060000160009054906101000a900473ffffffffffffffffffffffffffffffffffffffff1673ffffffffffffffffffffffffffffffffffffffff161415611ed0576040517f08c379a00000000000000000000000000000000000000000000000000000000081526004018080602001828103825260248152602001806125d36024913960400191505060405180910390fd5b6000600360008373ffffffffffffffffffffffffffffffffffffffff1673ffffffffffffffffffffffffffffffffffffffff168152602001908152602001600020600101549050600360008373ffffffffffffffffffffffffffffffffffffffff1673ffffffffffffffffffffffffffffffffffffffff168152602001908152602001600020600080820160006101000a81549073ffffffffffffffffffffffffffffffffffffffff02191690556001820160009055600282016000611f9691906124e5565b600382016000611fa691906124e5565b600482016000611fb691906124e5565b600582016000611fc691906124e5565b6006820160006101000a81549063ffffffff02191690556007820160009055600882016000611ff591906124e5565b50506002818154811061200457fe5b9060005260206000200160006101000a81549073ffffffffffffffffffffffffffffffffffffffff0219169055600160008154809291906001900391905055505050565b6000809054906101000a900473ffffffffffffffffffffffffffffffffffffffff1681565b6000809054906101000a900473ffffffffffffffffffffffffffffffffffffffff1673ffffffffffffffffffffffffffffffffffffffff163373ffffffffffffffffffffffffffffffffffffffff1614612112576040517f08c379a000000000000000000000000000000000000000000000000000000000815260040180806020018281038252602b8152602001806125f7602b913960400191505060405180910390fd5b600073ffffffffffffffffffffffffffffffffffffffff16600360008a73ffffffffffffffffffffffffffffffffffffffff1673ffffffffffffffffffffffffffffffffffffffff16815260200190815260200160002060000160009054906101000a900473ffffffffffffffffffffffffffffffffffffffff1673ffffffffffffffffffffffffffffffffffffffff1614156121fa576040517f08c379a00000000000000000000000000000000000000000000000000000000081526004018080602001828103825260288152602001806126226028913960400191505060405180910390fd5b86600360008a73ffffffffffffffffffffffffffffffffffffffff1673ffffffffffffffffffffffffffffffffffffffff168152602001908152602001600020600201908051906020019061225092919061252d565b5085600360008a73ffffffffffffffffffffffffffffffffffffffff1673ffffffffffffffffffffffffffffffffffffffff16815260200190815260200160002060030190805190602001906122a792919061252d565b5084600360008a73ffffffffffffffffffffffffffffffffffffffff1673ffffffffffffffffffffffffffffffffffffffff16815260200190815260200160002060040190805190602001906122fe92919061252d565b5083600360008a73ffffffffffffffffffffffffffffffffffffffff1673ffffffffffffffffffffffffffffffffffffffff168152602001908152602001600020600501908051906020019061235592919061252d565b5082600360008a73ffffffffffffffffffffffffffffffffffffffff1673ffffffffffffffffffffffffffffffffffffffff16815260200190815260200160002060060160006101000a81548163ffffffff021916908363ffffffff16021790555081600360008a73ffffffffffffffffffffffffffffffffffffffff1673ffffffffffffffffffffffffffffffffffffffff1681526020019081526020016000206007018190555080600360008a73ffffffffffffffffffffffffffffffffffffffff1673ffffffffffffffffffffffffffffffffffffffff168152602001908152602001600020600801908051906020019061245492919061252d565b505050505050505050565b60015481565b828054600181600116156101000203166002900490600052602060002090601f016020900481019282601f106124a657805160ff19168380011785556124d4565b828001600101855582156124d4579182015b828111156124d35782518255916020019190600101906124b8565b5b5090506124e191906125ad565b5090565b50805460018160011615610100020316600290046000825580601f1061250b575061252a565b601f01602090049060005260206000209081019061252991906125ad565b5b50565b828054600181600116156101000203166002900490600052602060002090601f016020900481019282601f1061256e57805160ff191683800117855561259c565b8280016001018555821561259c579182015b8281111561259b578251825591602001919060010190612580565b5b5090506125a991906125ad565b5090565b6125cf91905b808211156125cb5760008160009055506001016125b3565b5090565b9056fe626f72726172416c756d6e6f41646472202d20416c756d6e6f206e6f2063726561646f2e53c3b36c6f20656c206f776e65722070756564652068616365722065737461206f706572616369c3b36e2e61637475616c697a6172416c756d6e6f41646472202d20416c756d6e6f206e6f2063726561646f2e6c656572416c756d6e6f41646472202d20416c756d6e6f206e6f2063726561646f2ea265627a7a72315820765309f751be003a10b136e3124b226607189debf2bcd4145513d04f23125cac64736f6c63430005100032",
  "source": "pragma solidity >=0.5.12 <0.6.0;\n\ncontract UpmAlumnos {\n    \n    address public owner;\n    \n    uint public numAlumnos;\n    address[] public listaAlumnos;\n    mapping(address => Alumno) public mapAlumnosAddr;\n    \n    constructor() public {\n        owner = msg.sender;\n    }\n    \n    struct Alumno {\n        address addrEthAlum;\n        uint indexAlum;\n        string nombre;\n        string apellidos;\n        string dni;\n        string correoUpm;\n        uint32 telefMovil;\n        int256 fechaNac;\n        string idUpm;\n    }\n\n    function actualizarOwner(address _newOwner) public soloOwner() {\n        owner = _newOwner;\n    }\n\n    function miDireccion() public view returns(address _miDireccion) {\n        _miDireccion = msg.sender;\n    }\n\n    function alumnosLength() public view returns(uint _alumnosLength) {\n        _alumnosLength = listaAlumnos.length;\n    }\n    \n    \n    \n    function crearAlumno(\n        address _addrEthAlum,\n        string memory _nombre,\n        string memory _apellidos,\n        string memory _dni,\n        string memory _correoUpm,\n        uint32 _telefMovil,\n        int256 _fechaNac,\n        string memory _idUpm\n    ) public soloOwner() returns(\n        uint _indexAlum\n    ) {\n        require(mapAlumnosAddr[_addrEthAlum].addrEthAlum == address(0), \"crearAlumno - Alumno ya creado.\");\n        \n        _indexAlum = listaAlumnos.length;\n        \n        mapAlumnosAddr[_addrEthAlum] = Alumno(_addrEthAlum, _indexAlum, _nombre, _apellidos, _dni, _correoUpm, _telefMovil, _fechaNac, _idUpm);\n        \n        listaAlumnos.push(_addrEthAlum);\n        \n        numAlumnos++;\n    }\n    \n    function leerAlumnoAddr(\n        address _addrEthAlum\n    ) public view returns(\n        uint _indexAlum,\n        string memory _nombre,\n        string memory _apellidos,\n        string memory _dni,\n        string memory _correoUpm,\n        uint32 _telefMovil,\n        int256 _fechaNac,\n        string memory _idUpm\n    ) {\n        require(mapAlumnosAddr[_addrEthAlum].addrEthAlum != address(0), \"leerAlumnoAddr - Alumno no creado.\");\n        \n        _indexAlum = mapAlumnosAddr[_addrEthAlum].indexAlum;\n        _nombre = mapAlumnosAddr[_addrEthAlum].nombre;\n        _apellidos = mapAlumnosAddr[_addrEthAlum].apellidos;\n        _dni = mapAlumnosAddr[_addrEthAlum].dni;\n        _correoUpm = mapAlumnosAddr[_addrEthAlum].correoUpm;\n        _telefMovil = mapAlumnosAddr[_addrEthAlum].telefMovil;\n        _fechaNac = mapAlumnosAddr[_addrEthAlum].fechaNac;\n        _idUpm = mapAlumnosAddr[_addrEthAlum].idUpm;\n    }\n    \n    function actualizarAlumnoAddr(\n        address _addrEthAlum,\n        string memory _nombre,\n        string memory _apellidos,\n        string memory _dni,\n        string memory _correoUpm,\n        uint32 _telefMovil,\n        int256 _fechaNac,\n        string memory _idUpm\n    ) public soloOwner() {\n        require(mapAlumnosAddr[_addrEthAlum].addrEthAlum != address(0), \"actualizarAlumnoAddr - Alumno no creado.\");\n        \n        mapAlumnosAddr[_addrEthAlum].nombre = _nombre;\n        mapAlumnosAddr[_addrEthAlum].apellidos = _apellidos;\n        mapAlumnosAddr[_addrEthAlum].dni = _dni;\n        mapAlumnosAddr[_addrEthAlum].correoUpm = _correoUpm;\n        mapAlumnosAddr[_addrEthAlum].telefMovil = _telefMovil;\n        mapAlumnosAddr[_addrEthAlum].fechaNac = _fechaNac;\n        mapAlumnosAddr[_addrEthAlum].idUpm = _idUpm;\n    }\n    \n    function borrarAlumnoAddr(\n        address _addrEthAlum\n    ) public soloOwner {\n        require(mapAlumnosAddr[_addrEthAlum].addrEthAlum != address(0), \"borrarAlumnoAddr - Alumno no creado.\");\n        \n        uint _indexAlum = mapAlumnosAddr[_addrEthAlum].indexAlum;\n        \n        delete mapAlumnosAddr[_addrEthAlum];\n        delete listaAlumnos[_indexAlum];\n        \n        numAlumnos--;\n    }\n\n\n    modifier soloOwner() {\n        require(msg.sender == owner, \"Slo el owner puede hacer esta operacin.\");\n        _;\n    }\n    \n}",
  "sourcePath": "/home/luis/TFM/v1/Asignatura/contracts/UpmAlumnos.sol",
  "compiler": {
    "name": "solc",
    "version": "0.5.16+commit.9c3226ce.Emscripten.clang"
  },
  "schemaVersion": "3.0.23",
  "updatedAt": "2020-05-20T02:54:49.957Z",
  "networkType": "ethereum",
  "devdoc": {
    "methods": {}
  },
  "userdoc": {
    "methods": {}
  }
}