{
  "contractName": "UpmAsignatura",
  "abi": [
    {
      "inputs": [
        {
          "internalType": "address",
          "name": "_coordinador",
          "type": "address"
        },
        {
          "internalType": "string",
          "name": "_nombreAsignatura",
          "type": "string"
        },
        {
          "internalType": "string",
          "name": "_cursoAcademico",
          "type": "string"
        },
        {
          "internalType": "string",
          "name": "_codigoAsignatura",
          "type": "string"
        },
        {
          "internalType": "string",
          "name": "_titulacion",
          "type": "string"
        },
        {
          "internalType": "uint8",
          "name": "_numCreditos",
          "type": "uint8"
        },
        {
          "internalType": "uint8",
          "name": "_semestre",
          "type": "uint8"
        },
        {
          "internalType": "uint8",
          "name": "_cursoAno",
          "type": "uint8"
        },
        {
          "internalType": "enum UpmAsignatura.TipoAsignatura",
          "name": "_tipoAsignatura",
          "type": "uint8"
        }
      ],
      "payable": false,
      "stateMutability": "nonpayable",
      "type": "constructor"
    },
    {
      "constant": true,
      "inputs": [],
      "name": "codigoAsignatura",
      "outputs": [
        {
          "internalType": "string",
          "name": "",
          "type": "string"
        }
      ],
      "payable": false,
      "stateMutability": "view",
      "type": "function"
    },
    {
      "constant": true,
      "inputs": [],
      "name": "coordinador",
      "outputs": [
        {
          "internalType": "address",
          "name": "",
          "type": "address"
        }
      ],
      "payable": false,
      "stateMutability": "view",
      "type": "function"
    },
    {
      "constant": true,
      "inputs": [],
      "name": "cursoAcademico",
      "outputs": [
        {
          "internalType": "string",
          "name": "",
          "type": "string"
        }
      ],
      "payable": false,
      "stateMutability": "view",
      "type": "function"
    },
    {
      "constant": true,
      "inputs": [],
      "name": "cursoAno",
      "outputs": [
        {
          "internalType": "uint8",
          "name": "",
          "type": "uint8"
        }
      ],
      "payable": false,
      "stateMutability": "view",
      "type": "function"
    },
    {
      "constant": true,
      "inputs": [
        {
          "internalType": "uint256",
          "name": "",
          "type": "uint256"
        }
      ],
      "name": "listaAlumnos",
      "outputs": [
        {
          "internalType": "address",
          "name": "",
          "type": "address"
        }
      ],
      "payable": false,
      "stateMutability": "view",
      "type": "function"
    },
    {
      "constant": true,
      "inputs": [
        {
          "internalType": "uint256",
          "name": "",
          "type": "uint256"
        }
      ],
      "name": "listaEvaluaciones",
      "outputs": [
        {
          "internalType": "uint8",
          "name": "indexEvaluacion",
          "type": "uint8"
        },
        {
          "internalType": "string",
          "name": "nombre",
          "type": "string"
        },
        {
          "internalType": "uint256",
          "name": "fecha",
          "type": "uint256"
        },
        {
          "internalType": "enum UpmAsignatura.EvaluacionObligatoria",
          "name": "obligatoria",
          "type": "uint8"
        },
        {
          "internalType": "uint256",
          "name": "notaMinima",
          "type": "uint256"
        },
        {
          "internalType": "uint256",
          "name": "porcAportacion",
          "type": "uint256"
        },
        {
          "internalType": "enum UpmAsignatura.TipoConvocatoria",
          "name": "tipoConvocatoria",
          "type": "uint8"
        }
      ],
      "payable": false,
      "stateMutability": "view",
      "type": "function"
    },
    {
      "constant": true,
      "inputs": [
        {
          "internalType": "uint256",
          "name": "",
          "type": "uint256"
        }
      ],
      "name": "listaProfesores",
      "outputs": [
        {
          "internalType": "address",
          "name": "",
          "type": "address"
        }
      ],
      "payable": false,
      "stateMutability": "view",
      "type": "function"
    },
    {
      "constant": true,
      "inputs": [
        {
          "internalType": "address",
          "name": "",
          "type": "address"
        }
      ],
      "name": "mapAlumnos",
      "outputs": [
        {
          "internalType": "uint256",
          "name": "",
          "type": "uint256"
        }
      ],
      "payable": false,
      "stateMutability": "view",
      "type": "function"
    },
    {
      "constant": true,
      "inputs": [
        {
          "internalType": "address",
          "name": "",
          "type": "address"
        },
        {
          "internalType": "uint8",
          "name": "",
          "type": "uint8"
        }
      ],
      "name": "mapNotas",
      "outputs": [
        {
          "internalType": "enum UpmAsignatura.TipoNota",
          "name": "tipoNota",
          "type": "uint8"
        },
        {
          "internalType": "uint256",
          "name": "calificacion",
          "type": "uint256"
        },
        {
          "internalType": "bool",
          "name": "existsNota",
          "type": "bool"
        }
      ],
      "payable": false,
      "stateMutability": "view",
      "type": "function"
    },
    {
      "constant": true,
      "inputs": [
        {
          "internalType": "address",
          "name": "",
          "type": "address"
        }
      ],
      "name": "mapProfesores",
      "outputs": [
        {
          "internalType": "uint256",
          "name": "",
          "type": "uint256"
        }
      ],
      "payable": false,
      "stateMutability": "view",
      "type": "function"
    },
    {
      "constant": true,
      "inputs": [],
      "name": "nombreAsignatura",
      "outputs": [
        {
          "internalType": "string",
          "name": "",
          "type": "string"
        }
      ],
      "payable": false,
      "stateMutability": "view",
      "type": "function"
    },
    {
      "constant": true,
      "inputs": [],
      "name": "numAlumnos",
      "outputs": [
        {
          "internalType": "uint256",
          "name": "",
          "type": "uint256"
        }
      ],
      "payable": false,
      "stateMutability": "view",
      "type": "function"
    },
    {
      "constant": true,
      "inputs": [],
      "name": "numCreditos",
      "outputs": [
        {
          "internalType": "uint8",
          "name": "",
          "type": "uint8"
        }
      ],
      "payable": false,
      "stateMutability": "view",
      "type": "function"
    },
    {
      "constant": true,
      "inputs": [],
      "name": "numEvaluaciones",
      "outputs": [
        {
          "internalType": "uint8",
          "name": "",
          "type": "uint8"
        }
      ],
      "payable": false,
      "stateMutability": "view",
      "type": "function"
    },
    {
      "constant": true,
      "inputs": [],
      "name": "numNotas",
      "outputs": [
        {
          "internalType": "uint256",
          "name": "",
          "type": "uint256"
        }
      ],
      "payable": false,
      "stateMutability": "view",
      "type": "function"
    },
    {
      "constant": true,
      "inputs": [],
      "name": "numProfesores",
      "outputs": [
        {
          "internalType": "uint256",
          "name": "",
          "type": "uint256"
        }
      ],
      "payable": false,
      "stateMutability": "view",
      "type": "function"
    },
    {
      "constant": true,
      "inputs": [],
      "name": "owner",
      "outputs": [
        {
          "internalType": "address",
          "name": "",
          "type": "address"
        }
      ],
      "payable": false,
      "stateMutability": "view",
      "type": "function"
    },
    {
      "constant": true,
      "inputs": [],
      "name": "semestre",
      "outputs": [
        {
          "internalType": "uint8",
          "name": "",
          "type": "uint8"
        }
      ],
      "payable": false,
      "stateMutability": "view",
      "type": "function"
    },
    {
      "constant": true,
      "inputs": [],
      "name": "tipoAsignatura",
      "outputs": [
        {
          "internalType": "enum UpmAsignatura.TipoAsignatura",
          "name": "",
          "type": "uint8"
        }
      ],
      "payable": false,
      "stateMutability": "view",
      "type": "function"
    },
    {
      "constant": true,
      "inputs": [],
      "name": "titulacion",
      "outputs": [
        {
          "internalType": "string",
          "name": "",
          "type": "string"
        }
      ],
      "payable": false,
      "stateMutability": "view",
      "type": "function"
    },
    {
      "constant": false,
      "inputs": [
        {
          "internalType": "address",
          "name": "_newOwner",
          "type": "address"
        }
      ],
      "name": "actualizarOwner",
      "outputs": [],
      "payable": false,
      "stateMutability": "nonpayable",
      "type": "function"
    },
    {
      "constant": false,
      "inputs": [
        {
          "internalType": "address",
          "name": "_addrCoordinador",
          "type": "address"
        }
      ],
      "name": "actualizarCoordinador",
      "outputs": [],
      "payable": false,
      "stateMutability": "nonpayable",
      "type": "function"
    },
    {
      "constant": true,
      "inputs": [],
      "name": "miDireccion",
      "outputs": [
        {
          "internalType": "address",
          "name": "_miDireccion",
          "type": "address"
        }
      ],
      "payable": false,
      "stateMutability": "view",
      "type": "function"
    },
    {
      "constant": true,
      "inputs": [],
      "name": "alumnosLength",
      "outputs": [
        {
          "internalType": "uint256",
          "name": "_alumnosLength",
          "type": "uint256"
        }
      ],
      "payable": false,
      "stateMutability": "view",
      "type": "function"
    },
    {
      "constant": true,
      "inputs": [],
      "name": "profesoresLength",
      "outputs": [
        {
          "internalType": "uint256",
          "name": "_profesoresLength",
          "type": "uint256"
        }
      ],
      "payable": false,
      "stateMutability": "view",
      "type": "function"
    },
    {
      "constant": true,
      "inputs": [],
      "name": "evaluacionesLength",
      "outputs": [
        {
          "internalType": "uint256",
          "name": "_evaluacionesLength",
          "type": "uint256"
        }
      ],
      "payable": false,
      "stateMutability": "view",
      "type": "function"
    },
    {
      "constant": false,
      "inputs": [
        {
          "internalType": "string",
          "name": "_nombre",
          "type": "string"
        },
        {
          "internalType": "uint256",
          "name": "_fecha",
          "type": "uint256"
        },
        {
          "internalType": "enum UpmAsignatura.EvaluacionObligatoria",
          "name": "_obligatoria",
          "type": "uint8"
        },
        {
          "internalType": "uint256",
          "name": "_notaMinima",
          "type": "uint256"
        },
        {
          "internalType": "uint256",
          "name": "_porcAportacion",
          "type": "uint256"
        },
        {
          "internalType": "enum UpmAsignatura.TipoConvocatoria",
          "name": "_tipoConvocatoria",
          "type": "uint8"
        }
      ],
      "name": "crearEvaluacion",
      "outputs": [
        {
          "internalType": "uint8",
          "name": "_indexEval",
          "type": "uint8"
        }
      ],
      "payable": false,
      "stateMutability": "nonpayable",
      "type": "function"
    },
    {
      "constant": true,
      "inputs": [
        {
          "internalType": "uint8",
          "name": "_indexEval",
          "type": "uint8"
        }
      ],
      "name": "leerEvaluacion",
      "outputs": [
        {
          "internalType": "string",
          "name": "_nombre",
          "type": "string"
        },
        {
          "internalType": "uint256",
          "name": "_fecha",
          "type": "uint256"
        },
        {
          "internalType": "enum UpmAsignatura.EvaluacionObligatoria",
          "name": "_obligatoria",
          "type": "uint8"
        },
        {
          "internalType": "uint256",
          "name": "_notaMinima",
          "type": "uint256"
        },
        {
          "internalType": "uint256",
          "name": "_porcAportacion",
          "type": "uint256"
        },
        {
          "internalType": "enum UpmAsignatura.TipoConvocatoria",
          "name": "_tipoConvocatoria",
          "type": "uint8"
        }
      ],
      "payable": false,
      "stateMutability": "view",
      "type": "function"
    },
    {
      "constant": false,
      "inputs": [
        {
          "internalType": "uint8",
          "name": "_indexEval",
          "type": "uint8"
        },
        {
          "internalType": "string",
          "name": "_nombre",
          "type": "string"
        },
        {
          "internalType": "uint256",
          "name": "_fecha",
          "type": "uint256"
        },
        {
          "internalType": "enum UpmAsignatura.EvaluacionObligatoria",
          "name": "_obligatoria",
          "type": "uint8"
        },
        {
          "internalType": "uint256",
          "name": "_notaMinima",
          "type": "uint256"
        },
        {
          "internalType": "uint256",
          "name": "_porcAportacion",
          "type": "uint256"
        },
        {
          "internalType": "enum UpmAsignatura.TipoConvocatoria",
          "name": "_tipoConvocatoria",
          "type": "uint8"
        }
      ],
      "name": "actualizarEvaluacion",
      "outputs": [],
      "payable": false,
      "stateMutability": "nonpayable",
      "type": "function"
    },
    {
      "constant": false,
      "inputs": [
        {
          "internalType": "address",
          "name": "_addrEthProf",
          "type": "address"
        }
      ],
      "name": "anadirProfesor",
      "outputs": [],
      "payable": false,
      "stateMutability": "nonpayable",
      "type": "function"
    },
    {
      "constant": false,
      "inputs": [
        {
          "internalType": "address",
          "name": "_addrEthProf",
          "type": "address"
        }
      ],
      "name": "eliminarProfesor",
      "outputs": [],
      "payable": false,
      "stateMutability": "nonpayable",
      "type": "function"
    },
    {
      "constant": false,
      "inputs": [
        {
          "internalType": "address",
          "name": "_addrEthAlum",
          "type": "address"
        }
      ],
      "name": "anadirAlumno",
      "outputs": [],
      "payable": false,
      "stateMutability": "nonpayable",
      "type": "function"
    },
    {
      "constant": false,
      "inputs": [
        {
          "internalType": "address",
          "name": "_addrEthAlum",
          "type": "address"
        }
      ],
      "name": "eliminarAlumno",
      "outputs": [],
      "payable": false,
      "stateMutability": "nonpayable",
      "type": "function"
    },
    {
      "constant": false,
      "inputs": [
        {
          "internalType": "address",
          "name": "_addrEthAlum",
          "type": "address"
        },
        {
          "internalType": "uint8",
          "name": "_indexEval",
          "type": "uint8"
        },
        {
          "internalType": "enum UpmAsignatura.TipoNota",
          "name": "_tipoNota",
          "type": "uint8"
        },
        {
          "internalType": "uint256",
          "name": "_calificacion",
          "type": "uint256"
        }
      ],
      "name": "crearNota",
      "outputs": [],
      "payable": false,
      "stateMutability": "nonpayable",
      "type": "function"
    },
    {
      "constant": true,
      "inputs": [
        {
          "internalType": "address",
          "name": "_addrEthAlum",
          "type": "address"
        },
        {
          "internalType": "uint8",
          "name": "_indexEval",
          "type": "uint8"
        }
      ],
      "name": "leerNota",
      "outputs": [
        {
          "internalType": "enum UpmAsignatura.TipoNota",
          "name": "_tipoNota",
          "type": "uint8"
        },
        {
          "internalType": "uint256",
          "name": "_calificacion",
          "type": "uint256"
        }
      ],
      "payable": false,
      "stateMutability": "view",
      "type": "function"
    },
    {
      "constant": true,
      "inputs": [
        {
          "internalType": "uint8",
          "name": "_indexEval",
          "type": "uint8"
        }
      ],
      "name": "leerMiNota",
      "outputs": [
        {
          "internalType": "enum UpmAsignatura.TipoNota",
          "name": "_tipoNota",
          "type": "uint8"
        },
        {
          "internalType": "uint256",
          "name": "_calificacion",
          "type": "uint256"
        }
      ],
      "payable": false,
      "stateMutability": "view",
      "type": "function"
    },
    {
      "constant": false,
      "inputs": [
        {
          "internalType": "address",
          "name": "_addrEthAlum",
          "type": "address"
        },
        {
          "internalType": "uint8",
          "name": "_indexEval",
          "type": "uint8"
        },
        {
          "internalType": "enum UpmAsignatura.TipoNota",
          "name": "_tipoNota",
          "type": "uint8"
        },
        {
          "internalType": "uint256",
          "name": "_calificacion",
          "type": "uint256"
        }
      ],
      "name": "actualizarNota",
      "outputs": [],
      "payable": false,
      "stateMutability": "nonpayable",
      "type": "function"
    },
    {
      "constant": false,
      "inputs": [
        {
          "internalType": "address",
          "name": "_addrEthAlum",
          "type": "address"
        },
        {
          "internalType": "uint8",
          "name": "_indexEval",
          "type": "uint8"
        }
      ],
      "name": "borrarNota",
      "outputs": [],
      "payable": false,
      "stateMutability": "nonpayable",
      "type": "function"
    },
    {
      "constant": true,
      "inputs": [],
      "name": "isOwner",
      "outputs": [
        {
          "internalType": "bool",
          "name": "_isOwner",
          "type": "bool"
        }
      ],
      "payable": false,
      "stateMutability": "view",
      "type": "function"
    },
    {
      "constant": true,
      "inputs": [],
      "name": "isCoordinador",
      "outputs": [
        {
          "internalType": "bool",
          "name": "_isCoordinador",
          "type": "bool"
        }
      ],
      "payable": false,
      "stateMutability": "view",
      "type": "function"
    },
    {
      "constant": true,
      "inputs": [],
      "name": "isProfesor",
      "outputs": [
        {
          "internalType": "bool",
          "name": "_isProfesor",
          "type": "bool"
        }
      ],
      "payable": false,
      "stateMutability": "view",
      "type": "function"
    },
    {
      "constant": true,
      "inputs": [],
      "name": "isAlumno",
      "outputs": [
        {
          "internalType": "bool",
          "name": "_isAlumno",
          "type": "bool"
        }
      ],
      "payable": false,
      "stateMutability": "view",
      "type": "function"
    }
  ],
  "bytecode": "0x60806040523480156200001157600080fd5b5060405162004a2a38038062004a2a83398181016040526101208110156200003857600080fd5b8101908080519060200190929190805160405193929190846401000000008211156200006357600080fd5b838201915060208201858111156200007a57600080fd5b82518660018202830111640100000000821117156200009857600080fd5b8083526020830192505050908051906020019080838360005b83811015620000ce578082015181840152602081019050620000b1565b50505050905090810190601f168015620000fc5780820380516001836020036101000a031916815260200191505b50604052602001805160405193929190846401000000008211156200012057600080fd5b838201915060208201858111156200013757600080fd5b82518660018202830111640100000000821117156200015557600080fd5b8083526020830192505050908051906020019080838360005b838110156200018b5780820151818401526020810190506200016e565b50505050905090810190601f168015620001b95780820380516001836020036101000a031916815260200191505b5060405260200180516040519392919084640100000000821115620001dd57600080fd5b83820191506020820185811115620001f457600080fd5b82518660018202830111640100000000821117156200021257600080fd5b8083526020830192505050908051906020019080838360005b83811015620002485780820151818401526020810190506200022b565b50505050905090810190601f168015620002765780820380516001836020036101000a031916815260200191505b50604052602001805160405193929190846401000000008211156200029a57600080fd5b83820191506020820185811115620002b157600080fd5b8251866001820283011164010000000082111715620002cf57600080fd5b8083526020830192505050908051906020019080838360005b8381101562000305578082015181840152602081019050620002e8565b50505050905090810190601f168015620003335780820380516001836020036101000a031916815260200191505b5060405260200180519060200190929190805190602001909291908051906020019092919080519060200190929190505050336000806101000a81548173ffffffffffffffffffffffffffffffffffffffff021916908373ffffffffffffffffffffffffffffffffffffffff16021790555088600160006101000a81548173ffffffffffffffffffffffffffffffffffffffff021916908373ffffffffffffffffffffffffffffffffffffffff1602179055508760029080519060200190620003fe929190620004fa565b50866003908051906020019062000417929190620004fa565b50856004908051906020019062000430929190620004fa565b50846005908051906020019062000449929190620004fa565b5083600660006101000a81548160ff021916908360ff16021790555082600660016101000a81548160ff021916908360ff16021790555081600660026101000a81548160ff021916908360ff16021790555080600660036101000a81548160ff02191690836001811115620004ba57fe5b021790555060006007819055506000600a819055506000600d60006101000a81548160ff021916908360ff160217905550505050505050505050620005a9565b828054600181600116156101000203166002900490600052602060002090601f016020900481019282601f106200053d57805160ff19168380011785556200056e565b828001600101855582156200056e579182015b828111156200056d57825182559160200191906001019062000550565b5b5090506200057d919062000581565b5090565b620005a691905b80821115620005a257600081600090555060010162000588565b5090565b90565b61447180620005b96000396000f3fe608060405234801561001057600080fd5b506004361061025e5760003560e01c80636b9ccf341161014657806395639c90116100c3578063d1edc8c611610087578063d1edc8c614610ec4578063e11c678a14610f1c578063e6c4293614610f9f578063eb175c4014611007578063f50440f31461108a578063f967f986146110ae5761025e565b806395639c9014610cfa5780639df469bc14610d3e578063aa071fd714610e31578063aad90dce14610e55578063c84af77114610e735761025e565b806383f955371161010a57806383f9553714610b83578063847312f314610bc75780638c40697714610c0b5780638da5cb5b14610c8e5780638f32d59b14610cd85761025e565b80636b9ccf3414610a73578063735bb84314610acb57806377aeec7a14610ae95780637810ff1e14610b155780637fd0b28d14610b5f5761025e565b8063374b37ba116101df5780635fab2852116101a35780635fab2852146107165780636056c622146107845780636938ba5d14610884578063695ef5da146108fe57806369d05a05146109485780636a7a649514610a555761025e565b8063374b37ba146104e5578063488cf4f51461050757806350044f9d146105255780635066d072146105aa5780635d9672bc1461062d5761025e565b80631e38c270116102265780631e38c2701461038557806321fc4960146103a957806329060c4f14610417578063292a3fd41461045b57806330be6c121461047d5761025e565b806303aec09a1461026357806304e820ca146102a757806305649359146102eb578063119b3c1a146103455780631d5955ae14610367575b600080fd5b6102a56004803603602081101561027957600080fd5b81019080803573ffffffffffffffffffffffffffffffffffffffff1690602001909291905050506110cc565b005b6102e9600480360360208110156102bd57600080fd5b81019080803573ffffffffffffffffffffffffffffffffffffffff169060200190929190505050611308565b005b61031a6004803603602081101561030157600080fd5b81019080803560ff1690602001909291905050506113a8565b6040518083600281111561032a57fe5b60ff1681526020018281526020019250505060405180910390f35b61034d611792565b604051808215151515815260200191505060405180910390f35b61036f611851565b6040518082815260200191505060405180910390f35b61038d61185e565b604051808260ff1660ff16815260200191505060405180910390f35b6103d5600480360360208110156103bf57600080fd5b8101908080359060200190929190505050611871565b604051808273ffffffffffffffffffffffffffffffffffffffff1673ffffffffffffffffffffffffffffffffffffffff16815260200191505060405180910390f35b6104596004803603602081101561042d57600080fd5b81019080803573ffffffffffffffffffffffffffffffffffffffff1690602001909291905050506118ad565b005b610463611b15565b604051808215151515815260200191505060405180910390f35b6104e36004803603608081101561049357600080fd5b81019080803573ffffffffffffffffffffffffffffffffffffffff169060200190929190803560ff169060200190929190803560ff16906020019092919080359060200190929190505050611bd4565b005b6104ed611fb0565b604051808215151515815260200191505060405180910390f35b61050f612008565b6040518082815260200191505060405180910390f35b6105746004803603604081101561053b57600080fd5b81019080803573ffffffffffffffffffffffffffffffffffffffff169060200190929190803560ff169060200190929190505050612015565b6040518084600281111561058457fe5b60ff16815260200183815260200182151515158152602001935050505060405180910390f35b6105b2612066565b6040518080602001828103825283818151815260200191508051906020019080838360005b838110156105f25780820151818401526020810190506105d7565b50505050905090810190601f16801561061f5780820380516001836020036101000a031916815260200191505b509250505060405180910390f35b61065c6004803603602081101561064357600080fd5b81019080803560ff169060200190929190505050612104565b604051808060200187815260200186600181111561067657fe5b60ff16815260200185815260200184815260200183600281111561069657fe5b60ff168152602001828103825288818151815260200191508051906020019080838360005b838110156106d65780820151818401526020810190506106bb565b50505050905090810190601f1680156107035780820380516001836020036101000a031916815260200191505b5097505050505050505060405180910390f35b6107426004803603602081101561072c57600080fd5b81019080803590602001909291905050506123ef565b604051808273ffffffffffffffffffffffffffffffffffffffff1673ffffffffffffffffffffffffffffffffffffffff16815260200191505060405180910390f35b610882600480360360e081101561079a57600080fd5b81019080803560ff169060200190929190803590602001906401000000008111156107c457600080fd5b8201836020820111156107d657600080fd5b803590602001918460018302840111640100000000831117156107f857600080fd5b91908080601f016020809104026020016040519081016040528093929190818152602001838380828437600081840152601f19601f82011690508083019250505050505050919291929080359060200190929190803560ff1690602001909291908035906020019092919080359060200190929190803560ff16906020019092919050505061242b565b005b6108d36004803603604081101561089a57600080fd5b81019080803573ffffffffffffffffffffffffffffffffffffffff169060200190929190803560ff16906020019092919050505061269f565b604051808360028111156108e357fe5b60ff1681526020018281526020019250505060405180910390f35b610906612aa9565b604051808273ffffffffffffffffffffffffffffffffffffffff1673ffffffffffffffffffffffffffffffffffffffff16815260200191505060405180910390f35b610a39600480360360c081101561095e57600080fd5b810190808035906020019064010000000081111561097b57600080fd5b82018360208201111561098d57600080fd5b803590602001918460018302840111640100000000831117156109af57600080fd5b91908080601f016020809104026020016040519081016040528093929190818152602001838380828437600081840152601f19601f82011690508083019250505050505050919291929080359060200190929190803560ff1690602001909291908035906020019092919080359060200190929190803560ff169060200190929190505050612ab1565b604051808260ff1660ff16815260200191505060405180910390f35b610a5d612ca4565b6040518082815260200191505060405180910390f35b610ab560048036036020811015610a8957600080fd5b81019080803573ffffffffffffffffffffffffffffffffffffffff169060200190929190505050612caa565b6040518082815260200191505060405180910390f35b610ad3612cc2565b6040518082815260200191505060405180910390f35b610af1612cc8565b60405180826001811115610b0157fe5b60ff16815260200191505060405180910390f35b610b1d612cdb565b604051808273ffffffffffffffffffffffffffffffffffffffff1673ffffffffffffffffffffffffffffffffffffffff16815260200191505060405180910390f35b610b67612d01565b604051808260ff1660ff16815260200191505060405180910390f35b610bc560048036036020811015610b9957600080fd5b81019080803573ffffffffffffffffffffffffffffffffffffffff169060200190929190505050612d14565b005b610c0960048036036020811015610bdd57600080fd5b81019080803573ffffffffffffffffffffffffffffffffffffffff169060200190929190505050612f6f565b005b610c136131d9565b6040518080602001828103825283818151815260200191508051906020019080838360005b83811015610c53578082015181840152602081019050610c38565b50505050905090810190601f168015610c805780820380516001836020036101000a031916815260200191505b509250505060405180910390f35b610c96613277565b604051808273ffffffffffffffffffffffffffffffffffffffff1673ffffffffffffffffffffffffffffffffffffffff16815260200191505060405180910390f35b610ce061329c565b604051808215151515815260200191505060405180910390f35b610d3c60048036036020811015610d1057600080fd5b81019080803573ffffffffffffffffffffffffffffffffffffffff1690602001909291905050506132f3565b005b610d6a60048036036020811015610d5457600080fd5b81019080803590602001909291905050506133a3565b604051808860ff1660ff16815260200180602001878152602001866001811115610d9057fe5b60ff168152602001858152602001848152602001836002811115610db057fe5b60ff168152602001828103825288818151815260200191508051906020019080838360005b83811015610df0578082015181840152602081019050610dd5565b50505050905090810190601f168015610e1d5780820380516001836020036101000a031916815260200191505b509850505050505050505060405180910390f35b610e396134b1565b604051808260ff1660ff16815260200191505060405180910390f35b610e5d6134c4565b6040518082815260200191505060405180910390f35b610ec260048036036040811015610e8957600080fd5b81019080803573ffffffffffffffffffffffffffffffffffffffff169060200190929190803560ff1690602001909291905050506134ca565b005b610f0660048036036020811015610eda57600080fd5b81019080803573ffffffffffffffffffffffffffffffffffffffff1690602001909291905050506138a5565b6040518082815260200191505060405180910390f35b610f246138bd565b6040518080602001828103825283818151815260200191508051906020019080838360005b83811015610f64578082015181840152602081019050610f49565b50505050905090810190601f168015610f915780820380516001836020036101000a031916815260200191505b509250505060405180910390f35b61100560048036036080811015610fb557600080fd5b81019080803573ffffffffffffffffffffffffffffffffffffffff169060200190929190803560ff169060200190929190803560ff1690602001909291908035906020019092919050505061395b565b005b61100f613d84565b6040518080602001828103825283818151815260200191508051906020019080838360005b8381101561104f578082015181840152602081019050611034565b50505050905090810190601f16801561107c5780820380516001836020036101000a031916815260200191505b509250505060405180910390f35b611092613e22565b604051808260ff1660ff16815260200191505060405180910390f35b6110b6613e35565b6040518082815260200191505060405180910390f35b6110d461329c565b806110e357506110e2611fb0565b5b611138576040517f08c379a000000000000000000000000000000000000000000000000000000000815260040180806020018281038252603d815260200180614208603d913960400191505060405180910390fd5b6000600a5414611244576000600c60008373ffffffffffffffffffffffffffffffffffffffff1673ffffffffffffffffffffffffffffffffffffffff168152602001908152602001600020549050600b818154811061119357fe5b9060005260206000200160009054906101000a900473ffffffffffffffffffffffffffffffffffffffff1673ffffffffffffffffffffffffffffffffffffffff168273ffffffffffffffffffffffffffffffffffffffff161415611242576040517f08c379a00000000000000000000000000000000000000000000000000000000081526004018080602001828103825260248152602001806140266024913960400191505060405180910390fd5b505b600b80549050600c60008373ffffffffffffffffffffffffffffffffffffffff1673ffffffffffffffffffffffffffffffffffffffff16815260200190815260200160002081905550600b8190806001815401808255809150509060018203906000526020600020016000909192909190916101000a81548173ffffffffffffffffffffffffffffffffffffffff021916908373ffffffffffffffffffffffffffffffffffffffff16021790555050600a6000815480929190600101919050555050565b61131061329c565b611365576040517f08c379a000000000000000000000000000000000000000000000000000000000815260040180806020018281038252602b81526020018061406c602b913960400191505060405180910390fd5b806000806101000a81548173ffffffffffffffffffffffffffffffffffffffff021916908373ffffffffffffffffffffffffffffffffffffffff16021790555050565b6000806113b3611792565b611408576040517f08c379a000000000000000000000000000000000000000000000000000000000815260040180806020018281038252602c8152602001806140ed602c913960400191505060405180910390fd5b6000600960003373ffffffffffffffffffffffffffffffffffffffff1673ffffffffffffffffffffffffffffffffffffffff16815260200190815260200160002054905060006008828154811061145b57fe5b9060005260206000200160009054906101000a900473ffffffffffffffffffffffffffffffffffffffff1690508073ffffffffffffffffffffffffffffffffffffffff163373ffffffffffffffffffffffffffffffffffffffff1614611529576040517f08c379a000000000000000000000000000000000000000000000000000000000815260040180806020018281038252601e8152602001807f6c6565724d694e6f7461202d20416c756d6e6f206e6f2063726561646f2e000081525060200191505060405180910390fd5b60008560ff161015611586576040517f08c379a000000000000000000000000000000000000000000000000000000000815260040180806020018281038252603d815260200180614340603d913960400191505060405180910390fd5b6001600e805490500360ff168560ff1611156115ed576040517f08c379a000000000000000000000000000000000000000000000000000000000815260040180806020018281038252602281526020018061431e6022913960400191505060405180910390fd5b601060003373ffffffffffffffffffffffffffffffffffffffff1673ffffffffffffffffffffffffffffffffffffffff16815260200190815260200160002060008660ff1660ff16815260200190815260200160002060020160009054906101000a900460ff166116c6576040517f08c379a000000000000000000000000000000000000000000000000000000000815260040180806020018281038252601f8152602001807f6c6565724d694e6f7461202d204c61206e6f7461206e6f206578697374652e0081525060200191505060405180910390fd5b601060003373ffffffffffffffffffffffffffffffffffffffff1673ffffffffffffffffffffffffffffffffffffffff16815260200190815260200160002060008660ff1660ff16815260200190815260200160002060000160009054906101000a900460ff169350601060003373ffffffffffffffffffffffffffffffffffffffff1673ffffffffffffffffffffffffffffffffffffffff16815260200190815260200160002060008660ff1660ff1681526020019081526020016000206001015492505050915091565b600080600960003373ffffffffffffffffffffffffffffffffffffffff1673ffffffffffffffffffffffffffffffffffffffff168152602001908152602001600020549050600060075411801561184b5750600881815481106117f157fe5b9060005260206000200160009054906101000a900473ffffffffffffffffffffffffffffffffffffffff1673ffffffffffffffffffffffffffffffffffffffff163373ffffffffffffffffffffffffffffffffffffffff16145b91505090565b6000600880549050905090565b600660009054906101000a900460ff1681565b6008818154811061187e57fe5b906000526020600020016000915054906101000a900473ffffffffffffffffffffffffffffffffffffffff1681565b6118b561329c565b806118c457506118c3611fb0565b5b806118d357506118d2611b15565b5b611928576040517f08c379a000000000000000000000000000000000000000000000000000000000815260040180806020018281038252604a815260200180613fdc604a913960600191505060405180910390fd5b600060075414611a51576000600960008373ffffffffffffffffffffffffffffffffffffffff1673ffffffffffffffffffffffffffffffffffffffff1681526020019081526020016000205490506008818154811061198357fe5b9060005260206000200160009054906101000a900473ffffffffffffffffffffffffffffffffffffffff1673ffffffffffffffffffffffffffffffffffffffff168273ffffffffffffffffffffffffffffffffffffffff161415611a4f576040517f08c379a00000000000000000000000000000000000000000000000000000000081526004018080602001828103825260208152602001807f616e61646972416c756d6e6f202d20416c756d6e6f2079612063726561646f2e81525060200191505060405180910390fd5b505b600880549050600960008373ffffffffffffffffffffffffffffffffffffffff1673ffffffffffffffffffffffffffffffffffffffff1681526020019081526020016000208190555060088190806001815401808255809150509060018203906000526020600020016000909192909190916101000a81548173ffffffffffffffffffffffffffffffffffffffff021916908373ffffffffffffffffffffffffffffffffffffffff1602179055505060076000815480929190600101919050555050565b600080600c60003373ffffffffffffffffffffffffffffffffffffffff1673ffffffffffffffffffffffffffffffffffffffff1681526020019081526020016000205490506000600a54118015611bce5750600b8181548110611b7457fe5b9060005260206000200160009054906101000a900473ffffffffffffffffffffffffffffffffffffffff1673ffffffffffffffffffffffffffffffffffffffff163373ffffffffffffffffffffffffffffffffffffffff16145b91505090565b611bdc61329c565b80611beb5750611bea611fb0565b5b80611bfa5750611bf9611b15565b5b611c4f576040517f08c379a000000000000000000000000000000000000000000000000000000000815260040180806020018281038252604a815260200180613fdc604a913960600191505060405180910390fd5b6000600960008673ffffffffffffffffffffffffffffffffffffffff1673ffffffffffffffffffffffffffffffffffffffff168152602001908152602001600020549050600060088281548110611ca257fe5b9060005260206000200160009054906101000a900473ffffffffffffffffffffffffffffffffffffffff1690508073ffffffffffffffffffffffffffffffffffffffff168673ffffffffffffffffffffffffffffffffffffffff1614611d53576040517f08c379a000000000000000000000000000000000000000000000000000000000815260040180806020018281038252602281526020018061417c6022913960400191505060405180910390fd5b60008560ff161015611db0576040517f08c379a00000000000000000000000000000000000000000000000000000000081526004018080602001828103825260418152602001806141196041913960600191505060405180910390fd5b6001600e805490500360ff168560ff161115611e17576040517f08c379a0000000000000000000000000000000000000000000000000000000008152600401808060200182810382526026815260200180613f686026913960400191505060405180910390fd5b601060008773ffffffffffffffffffffffffffffffffffffffff1673ffffffffffffffffffffffffffffffffffffffff16815260200190815260200160002060008660ff1660ff16815260200190815260200160002060020160009054906101000a900460ff16611ed3576040517f08c379a00000000000000000000000000000000000000000000000000000000081526004018080602001828103825260238152602001806140976023913960400191505060405180910390fd5b6040518060600160405280856002811115611eea57fe5b815260200184815260200160011515815250601060008873ffffffffffffffffffffffffffffffffffffffff1673ffffffffffffffffffffffffffffffffffffffff16815260200190815260200160002060008760ff1660ff16815260200190815260200160002060008201518160000160006101000a81548160ff02191690836002811115611f7657fe5b02179055506020820151816001015560408201518160020160006101000a81548160ff021916908315150217905550905050505050505050565b6000600160009054906101000a900473ffffffffffffffffffffffffffffffffffffffff1673ffffffffffffffffffffffffffffffffffffffff163373ffffffffffffffffffffffffffffffffffffffff1614905090565b6000600e80549050905090565b6010602052816000526040600020602052806000526040600020600091509150508060000160009054906101000a900460ff16908060010154908060020160009054906101000a900460ff16905083565b60058054600181600116156101000203166002900480601f0160208091040260200160405190810160405280929190818152602001828054600181600116156101000203166002900480156120fc5780601f106120d1576101008083540402835291602001916120fc565b820191906000526020600020905b8154815290600101906020018083116120df57829003601f168201915b505050505081565b6060600080600080600061211661329c565b806121255750612124611fb0565b5b806121345750612133611b15565b5b806121435750612142611792565b5b612198576040517f08c379a00000000000000000000000000000000000000000000000000000000081526004018080602001828103825260558152602001806142456055913960600191505060405180910390fd5b60008760ff1610156121f5576040517f08c379a00000000000000000000000000000000000000000000000000000000081526004018080602001828103825260338152602001806140ba6033913960400191505060405180910390fd5b6001600e805490500360ff168760ff16111561225c576040517f08c379a0000000000000000000000000000000000000000000000000000000008152600401808060200182810382526026815260200180613f8e6026913960400191505060405180910390fd5b600e8760ff168154811061226c57fe5b90600052602060002090600702016001018054600181600116156101000203166002900480601f0160208091040260200160405190810160405280929190818152602001828054600181600116156101000203166002900480156123115780601f106122e657610100808354040283529160200191612311565b820191906000526020600020905b8154815290600101906020018083116122f457829003601f168201915b50505050509550600e8760ff168154811061232857fe5b9060005260206000209060070201600201549450600e8760ff168154811061234c57fe5b906000526020600020906007020160030160009054906101000a900460ff169350600e8760ff168154811061237d57fe5b9060005260206000209060070201600401549250600e8760ff16815481106123a157fe5b9060005260206000209060070201600501549150600e8760ff16815481106123c557fe5b906000526020600020906007020160060160009054906101000a900460ff16905091939550919395565b600b81815481106123fc57fe5b906000526020600020016000915054906101000a900473ffffffffffffffffffffffffffffffffffffffff1681565b61243361329c565b806124425750612441611fb0565b5b806124515750612450611b15565b5b6124a6576040517f08c379a000000000000000000000000000000000000000000000000000000000815260040180806020018281038252604a815260200180613fdc604a913960600191505060405180910390fd5b60008760ff161015612503576040517f08c379a000000000000000000000000000000000000000000000000000000000815260040180806020018281038252603881526020018061439e6038913960400191505060405180910390fd5b6001600e805490500360ff168760ff16111561256a576040517f08c379a000000000000000000000000000000000000000000000000000000000815260040180806020018281038252602c8152602001806143d6602c913960400191505060405180910390fd5b85600e8860ff168154811061257b57fe5b9060005260206000209060070201600101908051906020019061259f929190613e42565b5084600e8860ff16815481106125b157fe5b90600052602060002090600702016002018190555083600e8860ff16815481106125d757fe5b906000526020600020906007020160030160006101000a81548160ff0219169083600181111561260357fe5b021790555082600e8860ff168154811061261957fe5b90600052602060002090600702016004018190555081600e8860ff168154811061263f57fe5b90600052602060002090600702016005018190555080600e8860ff168154811061266557fe5b906000526020600020906007020160060160006101000a81548160ff0219169083600281111561269157fe5b021790555050505050505050565b6000806126aa61329c565b806126b957506126b8611fb0565b5b806126c857506126c7611b15565b5b61271d576040517f08c379a000000000000000000000000000000000000000000000000000000000815260040180806020018281038252604a815260200180613fdc604a913960600191505060405180910390fd5b6000600960008673ffffffffffffffffffffffffffffffffffffffff1673ffffffffffffffffffffffffffffffffffffffff16815260200190815260200160002054905060006008828154811061277057fe5b9060005260206000200160009054906101000a900473ffffffffffffffffffffffffffffffffffffffff1690508073ffffffffffffffffffffffffffffffffffffffff168673ffffffffffffffffffffffffffffffffffffffff161461283e576040517f08c379a000000000000000000000000000000000000000000000000000000000815260040180806020018281038252601c8152602001807f6c6565724e6f7461202d20416c756d6e6f206e6f2063726561646f2e0000000081525060200191505060405180910390fd5b60008560ff16101561289b576040517f08c379a000000000000000000000000000000000000000000000000000000000815260040180806020018281038252603b815260200180614402603b913960400191505060405180910390fd5b6001600e805490500360ff168560ff16111561291f576040517f08c379a00000000000000000000000000000000000000000000000000000000081526004018080602001828103825260208152602001807f6c6565724e6f7461202d204576616c756163696f6e206e6f206372656164612e81525060200191505060405180910390fd5b601060008773ffffffffffffffffffffffffffffffffffffffff1673ffffffffffffffffffffffffffffffffffffffff16815260200190815260200160002060008660ff1660ff16815260200190815260200160002060020160009054906101000a900460ff166129db576040517f08c379a00000000000000000000000000000000000000000000000000000000081526004018080602001828103825260228152602001806142fc6022913960400191505060405180910390fd5b601060008773ffffffffffffffffffffffffffffffffffffffff1673ffffffffffffffffffffffffffffffffffffffff16815260200190815260200160002060008660ff1660ff16815260200190815260200160002060000160009054906101000a900460ff169350601060008773ffffffffffffffffffffffffffffffffffffffff1673ffffffffffffffffffffffffffffffffffffffff16815260200190815260200160002060008660ff1660ff16815260200190815260200160002060010154925050509250929050565b600033905090565b6000612abb61329c565b80612aca5750612ac9611fb0565b5b80612ad95750612ad8611b15565b5b612b2e576040517f08c379a000000000000000000000000000000000000000000000000000000000815260040180806020018281038252604a815260200180613fdc604a913960600191505060405180910390fd5b600e6040518060e00160405280600e8054905060ff168152602001898152602001888152602001876001811115612b6157fe5b8152602001868152602001858152602001846002811115612b7e57fe5b8152509080600181540180825580915050906001820390600052602060002090600702016000909192909190915060008201518160000160006101000a81548160ff021916908360ff1602179055506020820151816001019080519060200190612be9929190613ec2565b506040820151816002015560608201518160030160006101000a81548160ff02191690836001811115612c1857fe5b02179055506080820151816004015560a0820151816005015560c08201518160060160006101000a81548160ff02191690836002811115612c5557fe5b02179055505050506001600e80549050039050600d600081819054906101000a900460ff168092919060010191906101000a81548160ff021916908360ff160217905550509695505050505050565b600f5481565b600c6020528060005260406000206000915090505481565b600a5481565b600660039054906101000a900460ff1681565b600160009054906101000a900473ffffffffffffffffffffffffffffffffffffffff1681565b600660019054906101000a900460ff1681565b612d1c61329c565b80612d2b5750612d2a611fb0565b5b612d80576040517f08c379a000000000000000000000000000000000000000000000000000000000815260040180806020018281038252603d815260200180614208603d913960400191505060405180910390fd5b6000600a541415612ddc576040517f08c379a000000000000000000000000000000000000000000000000000000000815260040180806020018281038252602d8152602001806141db602d913960400191505060405180910390fd5b6000600c60008373ffffffffffffffffffffffffffffffffffffffff1673ffffffffffffffffffffffffffffffffffffffff168152602001908152602001600020549050600b8181548110612e2d57fe5b9060005260206000200160009054906101000a900473ffffffffffffffffffffffffffffffffffffffff1673ffffffffffffffffffffffffffffffffffffffff168273ffffffffffffffffffffffffffffffffffffffff1614612edb576040517f08c379a00000000000000000000000000000000000000000000000000000000081526004018080602001828103825260268152602001806142d66026913960400191505060405180910390fd5b600c60008373ffffffffffffffffffffffffffffffffffffffff1673ffffffffffffffffffffffffffffffffffffffff16815260200190815260200160002060009055600b8181548110612f2b57fe5b9060005260206000200160006101000a81549073ffffffffffffffffffffffffffffffffffffffff0219169055600a60008154809291906001900391905055505050565b612f7761329c565b80612f865750612f85611fb0565b5b80612f955750612f94611b15565b5b612fea576040517f08c379a000000000000000000000000000000000000000000000000000000000815260040180806020018281038252604a815260200180613fdc604a913960600191505060405180910390fd5b60006007541415613046576040517f08c379a0000000000000000000000000000000000000000000000000000000008152600401808060200182810382526028815260200180613fb46028913960400191505060405180910390fd5b6000600960008373ffffffffffffffffffffffffffffffffffffffff1673ffffffffffffffffffffffffffffffffffffffff1681526020019081526020016000205490506008818154811061309757fe5b9060005260206000200160009054906101000a900473ffffffffffffffffffffffffffffffffffffffff1673ffffffffffffffffffffffffffffffffffffffff168273ffffffffffffffffffffffffffffffffffffffff1614613145576040517f08c379a000000000000000000000000000000000000000000000000000000000815260040180806020018281038252602281526020018061415a6022913960400191505060405180910390fd5b600960008373ffffffffffffffffffffffffffffffffffffffff1673ffffffffffffffffffffffffffffffffffffffff168152602001908152602001600020600090556008818154811061319557fe5b9060005260206000200160006101000a81549073ffffffffffffffffffffffffffffffffffffffff0219169055600760008154809291906001900391905055505050565b60038054600181600116156101000203166002900480601f01602080910402602001604051908101604052809291908181526020018280546001816001161561010002031660029004801561326f5780601f106132445761010080835404028352916020019161326f565b820191906000526020600020905b81548152906001019060200180831161325257829003601f168201915b505050505081565b6000809054906101000a900473ffffffffffffffffffffffffffffffffffffffff1681565b60008060009054906101000a900473ffffffffffffffffffffffffffffffffffffffff1673ffffffffffffffffffffffffffffffffffffffff163373ffffffffffffffffffffffffffffffffffffffff1614905090565b6132fb61329c565b8061330a5750613309611fb0565b5b61335f576040517f08c379a000000000000000000000000000000000000000000000000000000000815260040180806020018281038252603d815260200180614208603d913960400191505060405180910390fd5b80600160006101000a81548173ffffffffffffffffffffffffffffffffffffffff021916908373ffffffffffffffffffffffffffffffffffffffff16021790555050565b600e81815481106133b057fe5b90600052602060002090600702016000915090508060000160009054906101000a900460ff1690806001018054600181600116156101000203166002900480601f01602080910402602001604051908101604052809291908181526020018280546001816001161561010002031660029004801561346f5780601f106134445761010080835404028352916020019161346f565b820191906000526020600020905b81548152906001019060200180831161345257829003601f168201915b5050505050908060020154908060030160009054906101000a900460ff16908060040154908060050154908060060160009054906101000a900460ff16905087565b600d60009054906101000a900460ff1681565b60075481565b6134d261329c565b806134e157506134e0611fb0565b5b806134f057506134ef611b15565b5b613545576040517f08c379a000000000000000000000000000000000000000000000000000000000815260040180806020018281038252604a815260200180613fdc604a913960600191505060405180910390fd5b6000600960008473ffffffffffffffffffffffffffffffffffffffff1673ffffffffffffffffffffffffffffffffffffffff16815260200190815260200160002054905060006008828154811061359857fe5b9060005260206000200160009054906101000a900473ffffffffffffffffffffffffffffffffffffffff1690508073ffffffffffffffffffffffffffffffffffffffff168473ffffffffffffffffffffffffffffffffffffffff1614613666576040517f08c379a000000000000000000000000000000000000000000000000000000000815260040180806020018281038252601e8152602001807f626f727261724e6f7461202d20416c756d6e6f206e6f2063726561646f2e000081525060200191505060405180910390fd5b60008360ff1610156136c3576040517f08c379a000000000000000000000000000000000000000000000000000000000815260040180806020018281038252603d81526020018061419e603d913960400191505060405180910390fd5b6001600e805490500360ff168360ff16111561372a576040517f08c379a000000000000000000000000000000000000000000000000000000000815260040180806020018281038252602281526020018061404a6022913960400191505060405180910390fd5b601060008573ffffffffffffffffffffffffffffffffffffffff1673ffffffffffffffffffffffffffffffffffffffff16815260200190815260200160002060008460ff1660ff16815260200190815260200160002060020160009054906101000a900460ff16613803576040517f08c379a000000000000000000000000000000000000000000000000000000000815260040180806020018281038252601f8152602001807f626f727261724e6f7461202d204c61206e6f7461206e6f206578697374652e0081525060200191505060405180910390fd5b601060008573ffffffffffffffffffffffffffffffffffffffff1673ffffffffffffffffffffffffffffffffffffffff16815260200190815260200160002060008460ff1660ff168152602001908152602001600020600080820160006101000a81549060ff021916905560018201600090556002820160006101000a81549060ff02191690555050600f600081548092919060019003919050555050505050565b60096020528060005260406000206000915090505481565b60028054600181600116156101000203166002900480601f0160208091040260200160405190810160405280929190818152602001828054600181600116156101000203166002900480156139535780601f1061392857610100808354040283529160200191613953565b820191906000526020600020905b81548152906001019060200180831161393657829003601f168201915b505050505081565b61396361329c565b806139725750613971611fb0565b5b806139815750613980611b15565b5b6139d6576040517f08c379a000000000000000000000000000000000000000000000000000000000815260040180806020018281038252604a815260200180613fdc604a913960600191505060405180910390fd5b6000600960008673ffffffffffffffffffffffffffffffffffffffff1673ffffffffffffffffffffffffffffffffffffffff168152602001908152602001600020549050600060088281548110613a2957fe5b9060005260206000200160009054906101000a900473ffffffffffffffffffffffffffffffffffffffff1690508073ffffffffffffffffffffffffffffffffffffffff168673ffffffffffffffffffffffffffffffffffffffff1614613af7576040517f08c379a000000000000000000000000000000000000000000000000000000000815260040180806020018281038252601d8152602001807f63726561724e6f7461202d20416c756d6e6f206e6f2063726561646f2e00000081525060200191505060405180910390fd5b60008560ff161015613b54576040517f08c379a000000000000000000000000000000000000000000000000000000000815260040180806020018281038252603c81526020018061429a603c913960400191505060405180910390fd5b6001600e805490500360ff168560ff161115613bbb576040517f08c379a000000000000000000000000000000000000000000000000000000000815260040180806020018281038252602181526020018061437d6021913960400191505060405180910390fd5b601060008773ffffffffffffffffffffffffffffffffffffffff1673ffffffffffffffffffffffffffffffffffffffff16815260200190815260200160002060008660ff1660ff16815260200190815260200160002060020160009054906101000a900460ff1615613c95576040517f08c379a000000000000000000000000000000000000000000000000000000000815260040180806020018281038252601b8152602001807f63726561724e6f7461202d204e6f7461207961206372656164612e000000000081525060200191505060405180910390fd5b6040518060600160405280856002811115613cac57fe5b815260200184815260200160011515815250601060008873ffffffffffffffffffffffffffffffffffffffff1673ffffffffffffffffffffffffffffffffffffffff16815260200190815260200160002060008760ff1660ff16815260200190815260200160002060008201518160000160006101000a81548160ff02191690836002811115613d3857fe5b02179055506020820151816001015560408201518160020160006101000a81548160ff021916908315150217905550905050600f60008154809291906001019190505550505050505050565b60048054600181600116156101000203166002900480601f016020809104026020016040519081016040528092919081815260200182805460018160011615610100020316600290048015613e1a5780601f10613def57610100808354040283529160200191613e1a565b820191906000526020600020905b815481529060010190602001808311613dfd57829003601f168201915b505050505081565b600660029054906101000a900460ff1681565b6000600b80549050905090565b828054600181600116156101000203166002900490600052602060002090601f016020900481019282601f10613e8357805160ff1916838001178555613eb1565b82800160010185558215613eb1579182015b82811115613eb0578251825591602001919060010190613e95565b5b509050613ebe9190613f42565b5090565b828054600181600116156101000203166002900490600052602060002090601f016020900481019282601f10613f0357805160ff1916838001178555613f31565b82800160010185558215613f31579182015b82811115613f30578251825591602001919060010190613f15565b5b509050613f3e9190613f42565b5090565b613f6491905b80821115613f60576000816000905550600101613f48565b5090565b9056fe61637475616c697a61724e6f7461202d204576616c756163696f6e206e6f206372656164612e6c6565724576616c756163696f6e202d204576616c756163696f6e206e6f206372656164612e656c696d696e6172416c756d6e6f202d204e6f2068617920416c756d6e6f732063726561646f732e53c3b36c6f20656c206f776e65722c20656c20636f6f7264696e61646f72206f20756e2070726f6665736f722070756564656e2068616365722065737461206f706572616369c3b36e2e616e6164697250726f6665736f72202d2050726f6665736f722079612063726561646f2e626f727261724e6f7461202d204576616c756163696f6e206e6f206372656164612e53c3b36c6f20656c206f776e65722070756564652068616365722065737461206f706572616369c3b36e2e61637475616c697a61724e6f7461202d204c61206e6f7461206e6f206578697374652e6c6565724576616c756163696f6e202d204e6f206578697374656e206c6f7320c3ad6e6469636573206e6567617469766f732e53c3b36c6f20756e20616c756d6e6f2070756564652068616365722065737461206f706572616369c3b36e2e61637475616c697a61724e6f7461202d204e6f206578697374656e206c6f7320c3ad6e6469636573206465206576616c756163696f6e206e6567617469766f732e656c696d696e6172416c756d6e6f202d20416c756d6e6f206e6f2063726561646f2e61637475616c697a61724e6f7461202d20416c756d6e6f206e6f2063726561646f2e626f727261724e6f7461202d204e6f206578697374656e206c6f7320c3ad6e6469636573206465206576616c756163696f6e206e6567617469766f732e656c696d696e617250726f6665736f72202d204e6f206861792050726f6665736f7265732063726561646f732e53c3b36c6f20656c206f776e6572206f20656c20636f6f7264696e61646f722070756564656e2068616365722065737461206f706572616369c3b36e2e53c3b36c6f20656c206f776e65722c20656c20636f6f7264696e61646f722c20756e2070726f6665736f72206f20756e20616c756d6e6f2070756564656e2068616365722065737461206f706572616369c3b36e2e63726561724e6f7461202d204e6f206578697374656e206c6f7320c3ad6e6469636573206465206576616c756163696f6e206e6567617469766f732e656c696d696e617250726f6665736f72202d2050726f6665736f72206e6f2063726561646f2e6c6565724e6f7461202d204c61206e6f7461206e6f2065737461206372656164612e6c6565724d694e6f7461202d204576616c756163696f6e206e6f206372656164612e6c6565724d694e6f7461202d204e6f206578697374656e206c6f7320c3ad6e6469636573206465206576616c756163696f6e206e6567617469766f732e63726561724e6f7461202d204576616c756163696f6e206e6f206372656164612e61637475616c697a61724576616c756163696f6e202d204e6f206578697374656e206c6f7320696e6469636573206e6567617469766f732e61637475616c697a61724576616c756163696f6e202d204576616c756163696f6e206e6f206372656164612e6c6565724e6f7461202d204e6f206578697374656e206c6f7320c3ad6e6469636573206465206576616c756163696f6e206e6567617469766f732ea265627a7a723158204684daf9578038f6c8b48203eb3cbdd5aa1e1274cdf242d8dc56246047a50e8064736f6c63430005100032",
  "source": "pragma solidity >=0.5.12 <0.6.0;\n\ncontract UpmAsignatura {\n    \n    address public owner;\n    \n    address public coordinador;\n    \n    string public nombreAsignatura;\n    string public cursoAcademico;\n    string public codigoAsignatura;\n    string public titulacion;\n    uint8 public numCreditos;\n    uint8 public semestre;\n    uint8 public cursoAno;\n    TipoAsignatura public tipoAsignatura;\n    \n    uint public numAlumnos;\n    address[] public listaAlumnos;\n    mapping(address => uint) public mapAlumnos;                     // uint es el indice del array listaAlumnos\n    \n    uint public numProfesores;\n    address[] public listaProfesores;\n    mapping(address => uint) public mapProfesores;                  // uint es el indice del array listaProfesores\n    \n    uint8 public numEvaluaciones;\n    Evaluacion[] public listaEvaluaciones;\n    \n    uint public numNotas;\n    mapping(address => mapping(uint8 => Nota)) public mapNotas;         // address: direccin Alumno\n                                                                        // uint8: key Evaluacion\n    \n    enum TipoNota { NoPresentado, Normal, MatriculaHonor }\n    \n    enum TipoConvocatoria { OrdinariaContinua, OrdinariaFinal, Extraordinaria }\n    \n    enum TipoAsignatura { Obligatoria, Optativa }\n\n    enum EvaluacionObligatoria { Optativa, Obligatoria }\n    \n    struct Evaluacion {\n        uint8 indexEvaluacion;\n        string nombre;\n        uint fecha;\n        EvaluacionObligatoria obligatoria;\n        uint notaMinima;\n        uint porcAportacion;\n        TipoConvocatoria tipoConvocatoria;\n    }\n    \n    struct Nota {\n        TipoNota tipoNota;\n        uint calificacion;\n        bool existsNota;\n    }\n    \n    \n    constructor(\n        address _coordinador,\n        string memory _nombreAsignatura,\n        string memory _cursoAcademico,\n        string memory _codigoAsignatura,\n        string memory _titulacion,\n        uint8 _numCreditos,\n        uint8 _semestre,\n        uint8 _cursoAno,\n        TipoAsignatura _tipoAsignatura\n    ) public {\n        owner = msg.sender;\n        coordinador = _coordinador;\n        nombreAsignatura = _nombreAsignatura;\n        cursoAcademico = _cursoAcademico;\n        codigoAsignatura = _codigoAsignatura;\n        titulacion = _titulacion;\n        numCreditos = _numCreditos;\n        semestre = _semestre;\n        cursoAno = _cursoAno;\n        tipoAsignatura = _tipoAsignatura;\n        \n        numAlumnos = 0;\n        numProfesores = 0;\n        numEvaluaciones = 0;\n    }\n\n    function actualizarOwner(address _newOwner) public soloOwner() {\n        owner = _newOwner;\n    }\n\n    function actualizarCoordinador(address _addrCoordinador) public soloOwnerOCoordinador() {\n        coordinador = _addrCoordinador;\n    }\n    \n    function miDireccion() public view returns(address _miDireccion) {\n        _miDireccion = msg.sender;\n    }\n\n    function alumnosLength() public view returns(uint _alumnosLength) {\n        _alumnosLength = listaAlumnos.length;\n    }\n\n    function profesoresLength() public view returns(uint _profesoresLength) {\n        _profesoresLength = listaProfesores.length;\n    }\n\n    function evaluacionesLength() public view returns(uint _evaluacionesLength) {\n        _evaluacionesLength = listaEvaluaciones.length;\n    }\n    \n\n    // EVALUACIONES\n    \n    function crearEvaluacion(\n        string memory _nombre,\n        uint _fecha,\n        EvaluacionObligatoria _obligatoria,\n        uint _notaMinima,\n        uint _porcAportacion,\n        TipoConvocatoria _tipoConvocatoria\n    ) public soloOwnerOCoordinadorOProfesor() returns(uint8 _indexEval) {\n        listaEvaluaciones.push(Evaluacion(uint8(listaEvaluaciones.length), _nombre, _fecha, _obligatoria, _notaMinima, _porcAportacion, _tipoConvocatoria));\n        _indexEval = uint8(listaEvaluaciones.length - 1);\n        numEvaluaciones++;\n    }\n    \n    function leerEvaluacion(\n        uint8 _indexEval\n    ) public soloOwnerOCoordinadorOProfesorOAlumno() view returns(\n        string memory _nombre,\n        uint _fecha,\n        EvaluacionObligatoria _obligatoria,\n        uint _notaMinima,\n        uint _porcAportacion,\n        TipoConvocatoria _tipoConvocatoria\n    ) {\n        require(_indexEval >= 0, \"leerEvaluacion - No existen los ndices negativos.\");\n        require(_indexEval <= uint8(listaEvaluaciones.length) - 1, \"leerEvaluacion - Evaluacion no creada.\");\n        \n        _nombre = listaEvaluaciones[_indexEval].nombre;\n        _fecha = listaEvaluaciones[_indexEval].fecha;\n        _obligatoria = listaEvaluaciones[_indexEval].obligatoria;\n        _notaMinima = listaEvaluaciones[_indexEval].notaMinima;\n        _porcAportacion = listaEvaluaciones[_indexEval].porcAportacion;\n        _tipoConvocatoria = listaEvaluaciones[_indexEval].tipoConvocatoria;\n    }\n    \n    function actualizarEvaluacion(\n        uint8 _indexEval,\n        string memory _nombre,\n        uint _fecha,\n        EvaluacionObligatoria _obligatoria,\n        uint _notaMinima,\n        uint _porcAportacion,\n        TipoConvocatoria _tipoConvocatoria\n    ) public soloOwnerOCoordinadorOProfesor() {\n        require(_indexEval >= 0, \"actualizarEvaluacion - No existen los indices negativos.\");\n        require(_indexEval <= uint8(listaEvaluaciones.length) - 1, \"actualizarEvaluacion - Evaluacion no creada.\");\n        \n        listaEvaluaciones[_indexEval].nombre = _nombre;\n        listaEvaluaciones[_indexEval].fecha = _fecha;\n        listaEvaluaciones[_indexEval].obligatoria = _obligatoria;\n        listaEvaluaciones[_indexEval].notaMinima = _notaMinima;\n        listaEvaluaciones[_indexEval].porcAportacion = _porcAportacion;\n        listaEvaluaciones[_indexEval].tipoConvocatoria = _tipoConvocatoria;\n    }\n    \n    // borrar Evaluacion\n    // no hace falta\n    \n    \n    // PROFESORES\n    \n    function anadirProfesor(\n        address _addrEthProf\n    ) public soloOwnerOCoordinador() {\n        // comprobar que no esta creado el Profesor\n        if (numProfesores != 0) {\n            uint indexArrayProf = mapProfesores[_addrEthProf];\n            require(_addrEthProf != listaProfesores[indexArrayProf], \"anadirProfesor - Profesor ya creado.\");   \n        }\n        \n        mapProfesores[_addrEthProf] = listaProfesores.length;\n        listaProfesores.push(_addrEthProf);\n        numProfesores++;\n    }\n    \n    function eliminarProfesor(\n        address _addrEthProf\n    ) public soloOwnerOCoordinador() {\n        // comprobar que esta creado el Profesor\n        require(numProfesores != 0, \"eliminarProfesor - No hay Profesores creados.\");\n        uint indexArrayProf = mapProfesores[_addrEthProf];\n        require(_addrEthProf == listaProfesores[indexArrayProf], \"eliminarProfesor - Profesor no creado.\");\n        \n        delete mapProfesores[_addrEthProf];\n        //listaProfesores[indexArrayProf] = address(0);\n        delete listaProfesores[indexArrayProf];\n        numProfesores--;\n    }\n    \n    \n    \n    // ALUMNOS\n    \n    function anadirAlumno(\n        address _addrEthAlum\n    ) public soloOwnerOCoordinadorOProfesor() {\n        // comprobar que no esta creado el Alumno\n        if (numAlumnos != 0) {\n            uint indexArrayAlum = mapAlumnos[_addrEthAlum];\n            require(_addrEthAlum != listaAlumnos[indexArrayAlum], \"anadirAlumno - Alumno ya creado.\");\n        }\n        \n        mapAlumnos[_addrEthAlum] = listaAlumnos.length;\n        listaAlumnos.push(_addrEthAlum);\n        numAlumnos++;\n    }\n    \n    function eliminarAlumno(\n        address _addrEthAlum\n    ) public soloOwnerOCoordinadorOProfesor() {\n        // comprobar que esta creado el Alumno\n        require(numAlumnos != 0, \"eliminarAlumno - No hay Alumnos creados.\");\n        uint indexArrayAlum = mapAlumnos[_addrEthAlum];\n        require(_addrEthAlum == listaAlumnos[indexArrayAlum], \"eliminarAlumno - Alumno no creado.\");\n        \n        delete mapAlumnos[_addrEthAlum];\n        //listaAlumnos[indexArrayAlum] = address(0);\n        delete listaAlumnos[indexArrayAlum];\n        numAlumnos--;\n    }\n    \n    \n    \n    // NOTAS\n    \n    function crearNota(\n        address _addrEthAlum,\n        uint8 _indexEval,\n        TipoNota _tipoNota,\n        uint _calificacion\n    ) public soloOwnerOCoordinadorOProfesor() {\n        // comprobar que esta el Alumno creado\n        uint indexArrayAlum = mapAlumnos[_addrEthAlum];\n        address comparar = listaAlumnos[indexArrayAlum];\n        require(_addrEthAlum == comparar, \"crearNota - Alumno no creado.\");\n        // comprobar que esta la Evaluacion creada\n        require(_indexEval >= 0, \"crearNota - No existen los ndices de evaluacion negativos.\");\n        require(_indexEval <= uint8(listaEvaluaciones.length) - 1, \"crearNota - Evaluacion no creada.\");\n        // comprobar que no esta la Nota creada\n        require(!mapNotas[_addrEthAlum][_indexEval].existsNota, \"crearNota - Nota ya creada.\");\n        // TODO: comprobar entrada calificacion bien\n        \n        mapNotas[_addrEthAlum][_indexEval] = Nota(_tipoNota, _calificacion, true);\n        \n        numNotas++;\n    }\n    \n    function leerNota(\n        address _addrEthAlum,\n        uint8 _indexEval\n    ) public soloOwnerOCoordinadorOProfesor() view returns(\n        TipoNota _tipoNota,\n        uint _calificacion\n    ) {\n        // comprobar que esta el Alumno creado\n        uint indexArrayAlum = mapAlumnos[_addrEthAlum];\n        address comparar = listaAlumnos[indexArrayAlum];\n        require(_addrEthAlum == comparar, \"leerNota - Alumno no creado.\");\n        // comprobar que esta la Evaluacion creada\n        require(_indexEval >= 0, \"leerNota - No existen los ndices de evaluacion negativos.\");\n        require(_indexEval <= uint8(listaEvaluaciones.length) - 1, \"leerNota - Evaluacion no creada.\");\n        // comprobar que esta la Nota creada\n        require(mapNotas[_addrEthAlum][_indexEval].existsNota, \"leerNota - La nota no esta creada.\");\n        \n        _tipoNota = mapNotas[_addrEthAlum][_indexEval].tipoNota;\n        _calificacion = mapNotas[_addrEthAlum][_indexEval].calificacion;\n    }\n    \n    function leerMiNota(\n        uint8 _indexEval\n    ) public soloAlumno() view returns(\n        TipoNota _tipoNota,\n        uint _calificacion\n    ) {\n        // comprobar que esta el Alumno creado\n        uint indexArrayAlum = mapAlumnos[msg.sender];\n        address comparar = listaAlumnos[indexArrayAlum];\n        require(msg.sender == comparar, \"leerMiNota - Alumno no creado.\");\n        // comprobar que esta la Evaluacion creada\n        require(_indexEval >= 0, \"leerMiNota - No existen los ndices de evaluacion negativos.\");\n        require(_indexEval <= uint8(listaEvaluaciones.length) - 1, \"leerMiNota - Evaluacion no creada.\");\n        // comprobar que esta la Nota creada\n        require(mapNotas[msg.sender][_indexEval].existsNota, \"leerMiNota - La nota no existe.\");\n        \n        _tipoNota = mapNotas[msg.sender][_indexEval].tipoNota;\n        _calificacion = mapNotas[msg.sender][_indexEval].calificacion;\n    }\n    \n    function actualizarNota(\n        address _addrEthAlum,\n        uint8 _indexEval,\n        TipoNota _tipoNota,\n        uint _calificacion\n    ) public soloOwnerOCoordinadorOProfesor() {\n        // comprobar que esta el Alumno creado\n        uint indexArrayAlum = mapAlumnos[_addrEthAlum];\n        address comparar = listaAlumnos[indexArrayAlum];\n        require(_addrEthAlum == comparar, \"actualizarNota - Alumno no creado.\");\n        // comprobar que esta la Evaluacion creada\n        require(_indexEval >= 0, \"actualizarNota - No existen los ndices de evaluacion negativos.\");\n        require(_indexEval <= uint8(listaEvaluaciones.length) - 1, \"actualizarNota - Evaluacion no creada.\");\n        // comprobar que esta la Nota creada\n        require(mapNotas[_addrEthAlum][_indexEval].existsNota, \"actualizarNota - La nota no existe.\");\n        // TODO: comprobar entrada calificacion bien\n        \n        mapNotas[_addrEthAlum][_indexEval] = Nota(_tipoNota, _calificacion, true);\n    }\n    \n    function borrarNota(\n        address _addrEthAlum,\n        uint8 _indexEval\n    ) public soloOwnerOCoordinadorOProfesor() {\n        // comprobar que esta el Alumno creado\n        uint indexArrayAlum = mapAlumnos[_addrEthAlum];\n        address comparar = listaAlumnos[indexArrayAlum];\n        require(_addrEthAlum == comparar, \"borrarNota - Alumno no creado.\");\n        // comprobar que esta la Evaluacion creada\n        require(_indexEval >= 0, \"borrarNota - No existen los ndices de evaluacion negativos.\");\n        require(_indexEval <= uint8(listaEvaluaciones.length) - 1, \"borrarNota - Evaluacion no creada.\");\n        // comprobar que esta la Nota creada\n        require(mapNotas[_addrEthAlum][_indexEval].existsNota, \"borrarNota - La nota no existe.\");\n        \n        delete mapNotas[_addrEthAlum][_indexEval];\n        \n        numNotas--;\n    }\n    \n    \n    \n    function isOwner() public view returns(bool _isOwner) {\n        _isOwner = msg.sender == owner;\n    }\n\n    function isCoordinador() public view returns(bool _isCoordinador) {\n        _isCoordinador = msg.sender == coordinador;\n    }\n\n    function isProfesor() public view returns(bool _isProfesor) {\n        uint indexArrayProf = mapProfesores[msg.sender];\n        _isProfesor = (numProfesores > 0) && (msg.sender == listaProfesores[indexArrayProf]);\n    }\n\n    function isAlumno() public view returns(bool _isAlumno) {\n        uint indexArrayAlum = mapAlumnos[msg.sender];\n        _isAlumno = (numAlumnos > 0) && (msg.sender == listaAlumnos[indexArrayAlum]);\n    }\n\n    \n    modifier soloOwner() {\n        require(isOwner(), \"Slo el owner puede hacer esta operacin.\");\n        _;\n    }\n\n    modifier soloOwnerOCoordinador() {\n        require(isOwner() || isCoordinador(), \"Slo el owner o el coordinador pueden hacer esta operacin.\");\n        _;\n    }\n\n    modifier soloOwnerOCoordinadorOProfesor() {\n        require(isOwner() || isCoordinador() || isProfesor(), \"Slo el owner, el coordinador o un profesor pueden hacer esta operacin.\");\n        _;\n    }\n\n    modifier soloOwnerOCoordinadorOProfesorOAlumno() {\n        require(isOwner() || isCoordinador() || isProfesor() || isAlumno(), \"Slo el owner, el coordinador, un profesor o un alumno pueden hacer esta operacin.\");\n        _;\n    }\n\n    modifier soloAlumno() {\n        require(isAlumno(), \"Slo un alumno puede hacer esta operacin.\");\n        _;\n    }\n\n}",
  "sourcePath": "/home/luis/TFM/v1/Asignatura/contracts/UpmAsignatura.sol",
  "compiler": {
    "name": "solc",
    "version": "0.5.16+commit.9c3226ce.Emscripten.clang"
  },
  "schemaVersion": "3.0.23",
  "updatedAt": "2020-05-20T02:54:53.159Z",
  "networkType": "ethereum",
  "devdoc": {
    "methods": {}
  },
  "userdoc": {
    "methods": {}
  }
}