{
  "contractName": "UpmCatalogo",
  "abi": [
    {
      "inputs": [],
      "payable": false,
      "stateMutability": "nonpayable",
      "type": "constructor"
    },
    {
      "constant": true,
      "inputs": [
        {
          "internalType": "uint256",
          "name": "",
          "type": "uint256"
        }
      ],
      "name": "listaAsignaturas",
      "outputs": [
        {
          "internalType": "address",
          "name": "",
          "type": "address"
        }
      ],
      "payable": false,
      "stateMutability": "view",
      "type": "function"
    },
    {
      "constant": true,
      "inputs": [
        {
          "internalType": "address",
          "name": "",
          "type": "address"
        }
      ],
      "name": "mapAsignaturas",
      "outputs": [
        {
          "internalType": "uint256",
          "name": "indexArray",
          "type": "uint256"
        },
        {
          "internalType": "string",
          "name": "nombreAMostrar",
          "type": "string"
        }
      ],
      "payable": false,
      "stateMutability": "view",
      "type": "function"
    },
    {
      "constant": true,
      "inputs": [],
      "name": "numAsignaturas",
      "outputs": [
        {
          "internalType": "uint256",
          "name": "",
          "type": "uint256"
        }
      ],
      "payable": false,
      "stateMutability": "view",
      "type": "function"
    },
    {
      "constant": true,
      "inputs": [],
      "name": "owner",
      "outputs": [
        {
          "internalType": "address",
          "name": "",
          "type": "address"
        }
      ],
      "payable": false,
      "stateMutability": "view",
      "type": "function"
    },
    {
      "constant": false,
      "inputs": [
        {
          "internalType": "address",
          "name": "_newOwner",
          "type": "address"
        }
      ],
      "name": "actualizarOwner",
      "outputs": [],
      "payable": false,
      "stateMutability": "nonpayable",
      "type": "function"
    },
    {
      "constant": true,
      "inputs": [],
      "name": "miDireccion",
      "outputs": [
        {
          "internalType": "address",
          "name": "_miDireccion",
          "type": "address"
        }
      ],
      "payable": false,
      "stateMutability": "view",
      "type": "function"
    },
    {
      "constant": true,
      "inputs": [],
      "name": "asignaturasLength",
      "outputs": [
        {
          "internalType": "uint256",
          "name": "_asignaturasLength",
          "type": "uint256"
        }
      ],
      "payable": false,
      "stateMutability": "view",
      "type": "function"
    },
    {
      "constant": false,
      "inputs": [
        {
          "internalType": "address",
          "name": "_addrContractAsignatura",
          "type": "address"
        },
        {
          "internalType": "string",
          "name": "_nombreAMostrar",
          "type": "string"
        }
      ],
      "name": "anadirAsignatura",
      "outputs": [],
      "payable": false,
      "stateMutability": "nonpayable",
      "type": "function"
    },
    {
      "constant": false,
      "inputs": [
        {
          "internalType": "address",
          "name": "_addrContractAsignatura",
          "type": "address"
        }
      ],
      "name": "eliminarAsignatura",
      "outputs": [],
      "payable": false,
      "stateMutability": "nonpayable",
      "type": "function"
    }
  ],
  "bytecode": "0x608060405234801561001057600080fd5b50336000806101000a81548173ffffffffffffffffffffffffffffffffffffffff021916908373ffffffffffffffffffffffffffffffffffffffff160217905550610d50806100606000396000f3fe608060405234801561001057600080fd5b50600436106100935760003560e01c806380360c701161006657806380360c70146101d85780638da5cb5b1461029c578063aeb852cb146102e6578063b1d339f014610304578063daa337921461032257610093565b806304e820ca146100985780630e5b91c3146100dc5780631ab0526314610120578063695ef5da1461018e575b600080fd5b6100da600480360360208110156100ae57600080fd5b81019080803573ffffffffffffffffffffffffffffffffffffffff1690602001909291905050506103fd565b005b61011e600480360360208110156100f257600080fd5b81019080803573ffffffffffffffffffffffffffffffffffffffff1690602001909291905050506104e5565b005b61014c6004803603602081101561013657600080fd5b8101908080359060200190929190505050610793565b604051808273ffffffffffffffffffffffffffffffffffffffff1673ffffffffffffffffffffffffffffffffffffffff16815260200191505060405180910390f35b6101966107cf565b604051808273ffffffffffffffffffffffffffffffffffffffff1673ffffffffffffffffffffffffffffffffffffffff16815260200191505060405180910390f35b61021a600480360360208110156101ee57600080fd5b81019080803573ffffffffffffffffffffffffffffffffffffffff1690602001909291905050506107d7565b6040518083815260200180602001828103825283818151815260200191508051906020019080838360005b83811015610260578082015181840152602081019050610245565b50505050905090810190601f16801561028d5780820380516001836020036101000a031916815260200191505b50935050505060405180910390f35b6102a4610893565b604051808273ffffffffffffffffffffffffffffffffffffffff1673ffffffffffffffffffffffffffffffffffffffff16815260200191505060405180910390f35b6102ee6108b8565b6040518082815260200191505060405180910390f35b61030c6108c5565b6040518082815260200191505060405180910390f35b6103fb6004803603604081101561033857600080fd5b81019080803573ffffffffffffffffffffffffffffffffffffffff1690602001909291908035906020019064010000000081111561037557600080fd5b82018360208201111561038757600080fd5b803590602001918460018302840111640100000000831117156103a957600080fd5b91908080601f016020809104026020016040519081016040528093929190818152602001838380828437600081840152601f19601f8201169050808301925050505050505091929192905050506108cb565b005b6000809054906101000a900473ffffffffffffffffffffffffffffffffffffffff1673ffffffffffffffffffffffffffffffffffffffff163373ffffffffffffffffffffffffffffffffffffffff16146104a2576040517f08c379a000000000000000000000000000000000000000000000000000000000815260040180806020018281038252602b815260200180610c6f602b913960400191505060405180910390fd5b806000806101000a81548173ffffffffffffffffffffffffffffffffffffffff021916908373ffffffffffffffffffffffffffffffffffffffff16021790555050565b6000809054906101000a900473ffffffffffffffffffffffffffffffffffffffff1673ffffffffffffffffffffffffffffffffffffffff163373ffffffffffffffffffffffffffffffffffffffff161461058a576040517f08c379a000000000000000000000000000000000000000000000000000000000815260040180806020018281038252602b815260200180610c6f602b913960400191505060405180910390fd5b600060015414156105e6576040517f08c379a0000000000000000000000000000000000000000000000000000000008152600401808060200182810382526030815260200180610cec6030913960400191505060405180910390fd5b6000600360008373ffffffffffffffffffffffffffffffffffffffff1673ffffffffffffffffffffffffffffffffffffffff1681526020019081526020016000206000015490506002818154811061063a57fe5b9060005260206000200160009054906101000a900473ffffffffffffffffffffffffffffffffffffffff1673ffffffffffffffffffffffffffffffffffffffff168273ffffffffffffffffffffffffffffffffffffffff16146106e8576040517f08c379a000000000000000000000000000000000000000000000000000000000815260040180806020018281038252602a815260200180610cc2602a913960400191505060405180910390fd5b600360008373ffffffffffffffffffffffffffffffffffffffff1673ffffffffffffffffffffffffffffffffffffffff1681526020019081526020016000206000808201600090556001820160006107409190610b81565b50506002818154811061074f57fe5b9060005260206000200160006101000a81549073ffffffffffffffffffffffffffffffffffffffff0219169055600160008154809291906001900391905055505050565b600281815481106107a057fe5b906000526020600020016000915054906101000a900473ffffffffffffffffffffffffffffffffffffffff1681565b600033905090565b6003602052806000526040600020600091509050806000015490806001018054600181600116156101000203166002900480601f0160208091040260200160405190810160405280929190818152602001828054600181600116156101000203166002900480156108895780601f1061085e57610100808354040283529160200191610889565b820191906000526020600020905b81548152906001019060200180831161086c57829003601f168201915b5050505050905082565b6000809054906101000a900473ffffffffffffffffffffffffffffffffffffffff1681565b6000600280549050905090565b60015481565b6000809054906101000a900473ffffffffffffffffffffffffffffffffffffffff1673ffffffffffffffffffffffffffffffffffffffff163373ffffffffffffffffffffffffffffffffffffffff1614610970576040517f08c379a000000000000000000000000000000000000000000000000000000000815260040180806020018281038252602b815260200180610c6f602b913960400191505060405180910390fd5b600060028054905014610a82576000600360008473ffffffffffffffffffffffffffffffffffffffff1673ffffffffffffffffffffffffffffffffffffffff168152602001908152602001600020600001549050600281815481106109d157fe5b9060005260206000200160009054906101000a900473ffffffffffffffffffffffffffffffffffffffff1673ffffffffffffffffffffffffffffffffffffffff168373ffffffffffffffffffffffffffffffffffffffff161415610a80576040517f08c379a0000000000000000000000000000000000000000000000000000000008152600401808060200182810382526028815260200180610c9a6028913960400191505060405180910390fd5b505b6040518060400160405280600280549050815260200182815250600360008473ffffffffffffffffffffffffffffffffffffffff1673ffffffffffffffffffffffffffffffffffffffff168152602001908152602001600020600082015181600001556020820151816001019080519060200190610b01929190610bc9565b5090505060028290806001815401808255809150509060018203906000526020600020016000909192909190916101000a81548173ffffffffffffffffffffffffffffffffffffffff021916908373ffffffffffffffffffffffffffffffffffffffff160217905550506001600081548092919060010191905055505050565b50805460018160011615610100020316600290046000825580601f10610ba75750610bc6565b601f016020900490600052602060002090810190610bc59190610c49565b5b50565b828054600181600116156101000203166002900490600052602060002090601f016020900481019282601f10610c0a57805160ff1916838001178555610c38565b82800160010185558215610c38579182015b82811115610c37578251825591602001919060010190610c1c565b5b509050610c459190610c49565b5090565b610c6b91905b80821115610c67576000816000905550600101610c4f565b5090565b9056fe53c3b36c6f20656c206f776e65722070756564652068616365722065737461206f706572616369c3b36e2e616e61646972417369676e6174757261202d20417369676e6174757261207961206372656164612e656c696d696e6172417369676e6174757261202d20417369676e6174757261206e6f206372656164612e656c696d696e6172417369676e6174757261202d204e6f2068617920417369676e61747572617320637265616461732ea265627a7a723158205d8ed857601b429054e22e02737174d02974712312ac59960a2d89d281003c7064736f6c63430005100032",
  "source": "pragma solidity >=0.5.12 <0.6.0;\n\ncontract UpmCatalogo {\n    \n    address public owner;\n    \n    uint public numAsignaturas;\n    address[] public listaAsignaturas;\n    mapping(address => AsignaturaConNombre) public mapAsignaturas;\n\n    struct AsignaturaConNombre {\n        uint indexArray;\n        string nombreAMostrar;\n    }\n    \n    constructor() public {\n        owner = msg.sender;\n    }\n\n    function actualizarOwner(address _newOwner) public soloOwner() {\n        owner = _newOwner;\n    }\n\n    function miDireccion() public view returns(address _miDireccion) {\n        _miDireccion = msg.sender;\n    }\n\n    function asignaturasLength() public view returns(uint _asignaturasLength) {\n        _asignaturasLength = listaAsignaturas.length;\n    }\n    \n\n\n    function anadirAsignatura(\n        address _addrContractAsignatura,\n        string memory _nombreAMostrar\n    ) public soloOwner() {\n        // comprobar que no esta ya añadida\n        if (listaAsignaturas.length != 0) {\n            uint indexArrayAsig = mapAsignaturas[_addrContractAsignatura].indexArray;\n            require(_addrContractAsignatura != listaAsignaturas[indexArrayAsig], \"anadirAsignatura - Asignatura ya creada.\");\n        }\n        \n        mapAsignaturas[_addrContractAsignatura] = AsignaturaConNombre(listaAsignaturas.length, _nombreAMostrar);\n        listaAsignaturas.push(_addrContractAsignatura);\n        \n        numAsignaturas++;\n    }\n    \n    function eliminarAsignatura(\n        address _addrContractAsignatura\n    ) public soloOwner() {\n        // comprobar que esta creada la Asignatura\n        require(numAsignaturas != 0, \"eliminarAsignatura - No hay Asignaturas creadas.\");\n        uint indexArrayAsig = mapAsignaturas[_addrContractAsignatura].indexArray;\n        require(_addrContractAsignatura == listaAsignaturas[indexArrayAsig], \"eliminarAsignatura - Asignatura no creada.\");\n        \n        delete mapAsignaturas[_addrContractAsignatura];\n        // listaAsignaturas[indexArrayAsig] = address(0);\n        delete listaAsignaturas[indexArrayAsig];\n        \n        numAsignaturas--;\n    }\n\n\n\n    modifier soloOwner() {\n        require(msg.sender == owner, \"Sólo el owner puede hacer esta operación.\");\n        _;\n    }\n    \n}",
  "sourcePath": "/home/luis/TFM/v1/Asignatura/contracts/UpmCatalogo.sol",
  "compiler": {
    "name": "solc",
    "version": "0.5.16+commit.9c3226ce.Emscripten.clang"
  },
  "schemaVersion": "3.0.23",
  "updatedAt": "2020-05-20T02:54:54.418Z",
  "networkType": "ethereum",
  "devdoc": {
    "methods": {}
  },
  "userdoc": {
    "methods": {}
  }
}