{
  "contractName": "UpmProfesores",
  "abi": [
    {
      "inputs": [],
      "payable": false,
      "stateMutability": "nonpayable",
      "type": "constructor"
    },
    {
      "constant": true,
      "inputs": [
        {
          "internalType": "uint256",
          "name": "",
          "type": "uint256"
        }
      ],
      "name": "listaProfesores",
      "outputs": [
        {
          "internalType": "address",
          "name": "",
          "type": "address"
        }
      ],
      "payable": false,
      "stateMutability": "view",
      "type": "function"
    },
    {
      "constant": true,
      "inputs": [
        {
          "internalType": "address",
          "name": "",
          "type": "address"
        }
      ],
      "name": "mapProfesoresAddr",
      "outputs": [
        {
          "internalType": "address",
          "name": "addrEthProf",
          "type": "address"
        },
        {
          "internalType": "uint8",
          "name": "indexProf",
          "type": "uint8"
        },
        {
          "internalType": "string",
          "name": "nombre",
          "type": "string"
        },
        {
          "internalType": "string",
          "name": "apellidos",
          "type": "string"
        },
        {
          "internalType": "string",
          "name": "dni",
          "type": "string"
        },
        {
          "internalType": "string",
          "name": "correoUpm",
          "type": "string"
        },
        {
          "internalType": "uint32",
          "name": "telefMovil",
          "type": "uint32"
        },
        {
          "internalType": "int256",
          "name": "fechaNac",
          "type": "int256"
        },
        {
          "internalType": "string",
          "name": "idUpm",
          "type": "string"
        }
      ],
      "payable": false,
      "stateMutability": "view",
      "type": "function"
    },
    {
      "constant": true,
      "inputs": [],
      "name": "numProfesores",
      "outputs": [
        {
          "internalType": "uint8",
          "name": "",
          "type": "uint8"
        }
      ],
      "payable": false,
      "stateMutability": "view",
      "type": "function"
    },
    {
      "constant": true,
      "inputs": [],
      "name": "owner",
      "outputs": [
        {
          "internalType": "address",
          "name": "",
          "type": "address"
        }
      ],
      "payable": false,
      "stateMutability": "view",
      "type": "function"
    },
    {
      "constant": false,
      "inputs": [
        {
          "internalType": "address",
          "name": "_newOwner",
          "type": "address"
        }
      ],
      "name": "actualizarOwner",
      "outputs": [],
      "payable": false,
      "stateMutability": "nonpayable",
      "type": "function"
    },
    {
      "constant": true,
      "inputs": [],
      "name": "miDireccion",
      "outputs": [
        {
          "internalType": "address",
          "name": "_miDireccion",
          "type": "address"
        }
      ],
      "payable": false,
      "stateMutability": "view",
      "type": "function"
    },
    {
      "constant": true,
      "inputs": [],
      "name": "profesoresLength",
      "outputs": [
        {
          "internalType": "uint256",
          "name": "_profesoresLength",
          "type": "uint256"
        }
      ],
      "payable": false,
      "stateMutability": "view",
      "type": "function"
    },
    {
      "constant": false,
      "inputs": [
        {
          "internalType": "address",
          "name": "_addrEthProf",
          "type": "address"
        },
        {
          "internalType": "string",
          "name": "_nombre",
          "type": "string"
        },
        {
          "internalType": "string",
          "name": "_apellidos",
          "type": "string"
        },
        {
          "internalType": "string",
          "name": "_dni",
          "type": "string"
        },
        {
          "internalType": "string",
          "name": "_correoUpm",
          "type": "string"
        },
        {
          "internalType": "uint32",
          "name": "_telefMovil",
          "type": "uint32"
        },
        {
          "internalType": "int256",
          "name": "_fechaNac",
          "type": "int256"
        },
        {
          "internalType": "string",
          "name": "_idUpm",
          "type": "string"
        }
      ],
      "name": "crearProfesor",
      "outputs": [
        {
          "internalType": "uint8",
          "name": "_indexProf",
          "type": "uint8"
        }
      ],
      "payable": false,
      "stateMutability": "nonpayable",
      "type": "function"
    },
    {
      "constant": true,
      "inputs": [
        {
          "internalType": "address",
          "name": "_addrEthProf",
          "type": "address"
        }
      ],
      "name": "leerProfesorAddr",
      "outputs": [
        {
          "internalType": "uint8",
          "name": "_indexProf",
          "type": "uint8"
        },
        {
          "internalType": "string",
          "name": "_nombre",
          "type": "string"
        },
        {
          "internalType": "string",
          "name": "_apellidos",
          "type": "string"
        },
        {
          "internalType": "string",
          "name": "_dni",
          "type": "string"
        },
        {
          "internalType": "string",
          "name": "_correoUpm",
          "type": "string"
        },
        {
          "internalType": "uint32",
          "name": "_telefMovil",
          "type": "uint32"
        },
        {
          "internalType": "int256",
          "name": "_fechaNac",
          "type": "int256"
        },
        {
          "internalType": "string",
          "name": "_idUpm",
          "type": "string"
        }
      ],
      "payable": false,
      "stateMutability": "view",
      "type": "function"
    },
    {
      "constant": false,
      "inputs": [
        {
          "internalType": "address",
          "name": "_addrEthProf",
          "type": "address"
        },
        {
          "internalType": "string",
          "name": "_nombre",
          "type": "string"
        },
        {
          "internalType": "string",
          "name": "_apellidos",
          "type": "string"
        },
        {
          "internalType": "string",
          "name": "_dni",
          "type": "string"
        },
        {
          "internalType": "string",
          "name": "_correoUpm",
          "type": "string"
        },
        {
          "internalType": "uint32",
          "name": "_telefMovil",
          "type": "uint32"
        },
        {
          "internalType": "int256",
          "name": "_fechaNac",
          "type": "int256"
        },
        {
          "internalType": "string",
          "name": "_idUpm",
          "type": "string"
        }
      ],
      "name": "actualizarProfesorAddr",
      "outputs": [],
      "payable": false,
      "stateMutability": "nonpayable",
      "type": "function"
    },
    {
      "constant": false,
      "inputs": [
        {
          "internalType": "address",
          "name": "_addrEthProf",
          "type": "address"
        }
      ],
      "name": "borrarProfesorAddr",
      "outputs": [],
      "payable": false,
      "stateMutability": "nonpayable",
      "type": "function"
    }
  ],
  "bytecode": "0x608060405234801561001057600080fd5b50336000806101000a81548173ffffffffffffffffffffffffffffffffffffffff021916908373ffffffffffffffffffffffffffffffffffffffff160217905550612767806100606000396000f3fe608060405234801561001057600080fd5b50600436106100a95760003560e01c8063735bb84311610071578063735bb8431461055a57806376a0fce71461057e5780638da5cb5b14610845578063d7eecf611461088f578063e4da2e1514610b23578063f967f98614610e75576100a9565b806304e820ca146100ae5780632e46bc3e146100f25780635fab28521461045e578063637eb18a146104cc578063695ef5da14610510575b600080fd5b6100f0600480360360208110156100c457600080fd5b81019080803573ffffffffffffffffffffffffffffffffffffffff169060200190929190505050610e93565b005b610442600480360361010081101561010957600080fd5b81019080803573ffffffffffffffffffffffffffffffffffffffff1690602001909291908035906020019064010000000081111561014657600080fd5b82018360208201111561015857600080fd5b8035906020019184600183028401116401000000008311171561017a57600080fd5b91908080601f016020809104026020016040519081016040528093929190818152602001838380828437600081840152601f19601f820116905080830192505050505050509192919290803590602001906401000000008111156101dd57600080fd5b8201836020820111156101ef57600080fd5b8035906020019184600183028401116401000000008311171561021157600080fd5b91908080601f016020809104026020016040519081016040528093929190818152602001838380828437600081840152601f19601f8201169050808301925050505050505091929192908035906020019064010000000081111561027457600080fd5b82018360208201111561028657600080fd5b803590602001918460018302840111640100000000831117156102a857600080fd5b91908080601f016020809104026020016040519081016040528093929190818152602001838380828437600081840152601f19601f8201169050808301925050505050505091929192908035906020019064010000000081111561030b57600080fd5b82018360208201111561031d57600080fd5b8035906020019184600183028401116401000000008311171561033f57600080fd5b91908080601f016020809104026020016040519081016040528093929190818152602001838380828437600081840152601f19601f820116905080830192505050505050509192919290803563ffffffff16906020019092919080359060200190929190803590602001906401000000008111156103bc57600080fd5b8201836020820111156103ce57600080fd5b803590602001918460018302840111640100000000831117156103f057600080fd5b91908080601f016020809104026020016040519081016040528093929190818152602001838380828437600081840152601f19601f820116905080830192505050505050509192919290505050610f7b565b604051808260ff1660ff16815260200191505060405180910390f35b61048a6004803603602081101561047457600080fd5b8101908080359060200190929190505050611381565b604051808273ffffffffffffffffffffffffffffffffffffffff1673ffffffffffffffffffffffffffffffffffffffff16815260200191505060405180910390f35b61050e600480360360208110156104e257600080fd5b81019080803573ffffffffffffffffffffffffffffffffffffffff1690602001909291905050506113bd565b005b6105186116fe565b604051808273ffffffffffffffffffffffffffffffffffffffff1673ffffffffffffffffffffffffffffffffffffffff16815260200191505060405180910390f35b610562611706565b604051808260ff1660ff16815260200191505060405180910390f35b6105c06004803603602081101561059457600080fd5b81019080803573ffffffffffffffffffffffffffffffffffffffff169060200190929190505050611719565b604051808a73ffffffffffffffffffffffffffffffffffffffff1673ffffffffffffffffffffffffffffffffffffffff1681526020018960ff1660ff168152602001806020018060200180602001806020018863ffffffff1663ffffffff1681526020018781526020018060200186810386528d818151815260200191508051906020019080838360005b8381101561066657808201518184015260208101905061064b565b50505050905090810190601f1680156106935780820380516001836020036101000a031916815260200191505b5086810385528c818151815260200191508051906020019080838360005b838110156106cc5780820151818401526020810190506106b1565b50505050905090810190601f1680156106f95780820380516001836020036101000a031916815260200191505b5086810384528b818151815260200191508051906020019080838360005b83811015610732578082015181840152602081019050610717565b50505050905090810190601f16801561075f5780820380516001836020036101000a031916815260200191505b5086810383528a818151815260200191508051906020019080838360005b8381101561079857808201518184015260208101905061077d565b50505050905090810190601f1680156107c55780820380516001836020036101000a031916815260200191505b50868103825287818151815260200191508051906020019080838360005b838110156107fe5780820151818401526020810190506107e3565b50505050905090810190601f16801561082b5780820380516001836020036101000a031916815260200191505b509e50505050505050505050505050505060405180910390f35b61084d611a9c565b604051808273ffffffffffffffffffffffffffffffffffffffff1673ffffffffffffffffffffffffffffffffffffffff16815260200191505060405180910390f35b6108d1600480360360208110156108a557600080fd5b81019080803573ffffffffffffffffffffffffffffffffffffffff169060200190929190505050611ac1565b604051808960ff1660ff168152602001806020018060200180602001806020018863ffffffff1663ffffffff1681526020018781526020018060200186810386528d818151815260200191508051906020019080838360005b8381101561094557808201518184015260208101905061092a565b50505050905090810190601f1680156109725780820380516001836020036101000a031916815260200191505b5086810385528c818151815260200191508051906020019080838360005b838110156109ab578082015181840152602081019050610990565b50505050905090810190601f1680156109d85780820380516001836020036101000a031916815260200191505b5086810384528b818151815260200191508051906020019080838360005b83811015610a115780820151818401526020810190506109f6565b50505050905090810190601f168015610a3e5780820380516001836020036101000a031916815260200191505b5086810383528a818151815260200191508051906020019080838360005b83811015610a77578082015181840152602081019050610a5c565b50505050905090810190601f168015610aa45780820380516001836020036101000a031916815260200191505b50868103825287818151815260200191508051906020019080838360005b83811015610add578082015181840152602081019050610ac2565b50505050905090810190601f168015610b0a5780820380516001836020036101000a031916815260200191505b509d505050505050505050505050505060405180910390f35b610e736004803603610100811015610b3a57600080fd5b81019080803573ffffffffffffffffffffffffffffffffffffffff16906020019092919080359060200190640100000000811115610b7757600080fd5b820183602082011115610b8957600080fd5b80359060200191846001830284011164010000000083111715610bab57600080fd5b91908080601f016020809104026020016040519081016040528093929190818152602001838380828437600081840152601f19601f82011690508083019250505050505050919291929080359060200190640100000000811115610c0e57600080fd5b820183602082011115610c2057600080fd5b80359060200191846001830284011164010000000083111715610c4257600080fd5b91908080601f016020809104026020016040519081016040528093929190818152602001838380828437600081840152601f19601f82011690508083019250505050505050919291929080359060200190640100000000811115610ca557600080fd5b820183602082011115610cb757600080fd5b80359060200191846001830284011164010000000083111715610cd957600080fd5b91908080601f016020809104026020016040519081016040528093929190818152602001838380828437600081840152601f19601f82011690508083019250505050505050919291929080359060200190640100000000811115610d3c57600080fd5b820183602082011115610d4e57600080fd5b80359060200191846001830284011164010000000083111715610d7057600080fd5b91908080601f016020809104026020016040519081016040528093929190818152602001838380828437600081840152601f19601f820116905080830192505050505050509192919290803563ffffffff1690602001909291908035906020019092919080359060200190640100000000811115610ded57600080fd5b820183602082011115610dff57600080fd5b80359060200191846001830284011164010000000083111715610e2157600080fd5b91908080601f016020809104026020016040519081016040528093929190818152602001838380828437600081840152601f19601f8201169050808301925050505050505091929192905050506120fe565b005b610e7d6124f0565b6040518082815260200191505060405180910390f35b6000809054906101000a900473ffffffffffffffffffffffffffffffffffffffff1673ffffffffffffffffffffffffffffffffffffffff163373ffffffffffffffffffffffffffffffffffffffff1614610f38576040517f08c379a000000000000000000000000000000000000000000000000000000000815260040180806020018281038252602b81526020018061266b602b913960400191505060405180910390fd5b806000806101000a81548173ffffffffffffffffffffffffffffffffffffffff021916908373ffffffffffffffffffffffffffffffffffffffff16021790555050565b60008060009054906101000a900473ffffffffffffffffffffffffffffffffffffffff1673ffffffffffffffffffffffffffffffffffffffff163373ffffffffffffffffffffffffffffffffffffffff1614611022576040517f08c379a000000000000000000000000000000000000000000000000000000000815260040180806020018281038252602b81526020018061266b602b913960400191505060405180910390fd5b600073ffffffffffffffffffffffffffffffffffffffff16600260008b73ffffffffffffffffffffffffffffffffffffffff1673ffffffffffffffffffffffffffffffffffffffff16815260200190815260200160002060000160009054906101000a900473ffffffffffffffffffffffffffffffffffffffff1673ffffffffffffffffffffffffffffffffffffffff1614611109576040517f08c379a00000000000000000000000000000000000000000000000000000000081526004018080602001828103825260238152602001806126be6023913960400191505060405180910390fd5b60018054905090506040518061012001604052808a73ffffffffffffffffffffffffffffffffffffffff1681526020018260ff1681526020018981526020018881526020018781526020018681526020018563ffffffff16815260200184815260200183815250600260008b73ffffffffffffffffffffffffffffffffffffffff1673ffffffffffffffffffffffffffffffffffffffff16815260200190815260200160002060008201518160000160006101000a81548173ffffffffffffffffffffffffffffffffffffffff021916908373ffffffffffffffffffffffffffffffffffffffff16021790555060208201518160000160146101000a81548160ff021916908360ff16021790555060408201518160010190805190602001906112339291906124fd565b5060608201518160020190805190602001906112509291906124fd565b50608082015181600301908051906020019061126d9291906124fd565b5060a082015181600401908051906020019061128a9291906124fd565b5060c08201518160050160006101000a81548163ffffffff021916908363ffffffff16021790555060e082015181600601556101008201518160070190805190602001906112d99291906124fd565b5090505060018990806001815401808255809150509060018203906000526020600020016000909192909190916101000a81548173ffffffffffffffffffffffffffffffffffffffff021916908373ffffffffffffffffffffffffffffffffffffffff160217905550506000601481819054906101000a900460ff168092919060010191906101000a81548160ff021916908360ff1602179055505098975050505050505050565b6001818154811061138e57fe5b906000526020600020016000915054906101000a900473ffffffffffffffffffffffffffffffffffffffff1681565b6000809054906101000a900473ffffffffffffffffffffffffffffffffffffffff1673ffffffffffffffffffffffffffffffffffffffff163373ffffffffffffffffffffffffffffffffffffffff1614611462576040517f08c379a000000000000000000000000000000000000000000000000000000000815260040180806020018281038252602b81526020018061266b602b913960400191505060405180910390fd5b600073ffffffffffffffffffffffffffffffffffffffff16600260008373ffffffffffffffffffffffffffffffffffffffff1673ffffffffffffffffffffffffffffffffffffffff16815260200190815260200160002060000160009054906101000a900473ffffffffffffffffffffffffffffffffffffffff1673ffffffffffffffffffffffffffffffffffffffff16141561154a576040517f08c379a00000000000000000000000000000000000000000000000000000000081526004018080602001828103825260288152602001806126966028913960400191505060405180910390fd5b6000600260008373ffffffffffffffffffffffffffffffffffffffff1673ffffffffffffffffffffffffffffffffffffffff16815260200190815260200160002060000160149054906101000a900460ff169050600260008373ffffffffffffffffffffffffffffffffffffffff1673ffffffffffffffffffffffffffffffffffffffff168152602001908152602001600020600080820160006101000a81549073ffffffffffffffffffffffffffffffffffffffff02191690556000820160146101000a81549060ff0219169055600182016000611629919061257d565b600282016000611639919061257d565b600382016000611649919061257d565b600482016000611659919061257d565b6005820160006101000a81549063ffffffff02191690556006820160009055600782016000611688919061257d565b505060018160ff168154811061169a57fe5b9060005260206000200160006101000a81549073ffffffffffffffffffffffffffffffffffffffff02191690556000601481819054906101000a900460ff16809291906001900391906101000a81548160ff021916908360ff160217905550505050565b600033905090565b600060149054906101000a900460ff1681565b60026020528060005260406000206000915090508060000160009054906101000a900473ffffffffffffffffffffffffffffffffffffffff16908060000160149054906101000a900460ff1690806001018054600181600116156101000203166002900480601f0160208091040260200160405190810160405280929190818152602001828054600181600116156101000203166002900480156117fe5780601f106117d3576101008083540402835291602001916117fe565b820191906000526020600020905b8154815290600101906020018083116117e157829003601f168201915b505050505090806002018054600181600116156101000203166002900480601f01602080910402602001604051908101604052809291908181526020018280546001816001161561010002031660029004801561189c5780601f106118715761010080835404028352916020019161189c565b820191906000526020600020905b81548152906001019060200180831161187f57829003601f168201915b505050505090806003018054600181600116156101000203166002900480601f01602080910402602001604051908101604052809291908181526020018280546001816001161561010002031660029004801561193a5780601f1061190f5761010080835404028352916020019161193a565b820191906000526020600020905b81548152906001019060200180831161191d57829003601f168201915b505050505090806004018054600181600116156101000203166002900480601f0160208091040260200160405190810160405280929190818152602001828054600181600116156101000203166002900480156119d85780601f106119ad576101008083540402835291602001916119d8565b820191906000526020600020905b8154815290600101906020018083116119bb57829003601f168201915b5050505050908060050160009054906101000a900463ffffffff1690806006015490806007018054600181600116156101000203166002900480601f016020809104026020016040519081016040528092919081815260200182805460018160011615610100020316600290048015611a925780601f10611a6757610100808354040283529160200191611a92565b820191906000526020600020905b815481529060010190602001808311611a7557829003601f168201915b5050505050905089565b6000809054906101000a900473ffffffffffffffffffffffffffffffffffffffff1681565b60006060806060806000806060600073ffffffffffffffffffffffffffffffffffffffff16600260008b73ffffffffffffffffffffffffffffffffffffffff1673ffffffffffffffffffffffffffffffffffffffff16815260200190815260200160002060000160009054906101000a900473ffffffffffffffffffffffffffffffffffffffff1673ffffffffffffffffffffffffffffffffffffffff161415611bb6576040517f08c379a00000000000000000000000000000000000000000000000000000000081526004018080602001828103825260268152602001806126e16026913960400191505060405180910390fd5b600260008a73ffffffffffffffffffffffffffffffffffffffff1673ffffffffffffffffffffffffffffffffffffffff16815260200190815260200160002060000160149054906101000a900460ff169750600260008a73ffffffffffffffffffffffffffffffffffffffff1673ffffffffffffffffffffffffffffffffffffffff1681526020019081526020016000206001018054600181600116156101000203166002900480601f016020809104026020016040519081016040528092919081815260200182805460018160011615610100020316600290048015611cde5780601f10611cb357610100808354040283529160200191611cde565b820191906000526020600020905b815481529060010190602001808311611cc157829003601f168201915b50505050509650600260008a73ffffffffffffffffffffffffffffffffffffffff1673ffffffffffffffffffffffffffffffffffffffff1681526020019081526020016000206002018054600181600116156101000203166002900480601f016020809104026020016040519081016040528092919081815260200182805460018160011615610100020316600290048015611dbb5780601f10611d9057610100808354040283529160200191611dbb565b820191906000526020600020905b815481529060010190602001808311611d9e57829003601f168201915b50505050509550600260008a73ffffffffffffffffffffffffffffffffffffffff1673ffffffffffffffffffffffffffffffffffffffff1681526020019081526020016000206003018054600181600116156101000203166002900480601f016020809104026020016040519081016040528092919081815260200182805460018160011615610100020316600290048015611e985780601f10611e6d57610100808354040283529160200191611e98565b820191906000526020600020905b815481529060010190602001808311611e7b57829003601f168201915b50505050509450600260008a73ffffffffffffffffffffffffffffffffffffffff1673ffffffffffffffffffffffffffffffffffffffff1681526020019081526020016000206004018054600181600116156101000203166002900480601f016020809104026020016040519081016040528092919081815260200182805460018160011615610100020316600290048015611f755780601f10611f4a57610100808354040283529160200191611f75565b820191906000526020600020905b815481529060010190602001808311611f5857829003601f168201915b50505050509350600260008a73ffffffffffffffffffffffffffffffffffffffff1673ffffffffffffffffffffffffffffffffffffffff16815260200190815260200160002060050160009054906101000a900463ffffffff169250600260008a73ffffffffffffffffffffffffffffffffffffffff1673ffffffffffffffffffffffffffffffffffffffff168152602001908152602001600020600601549150600260008a73ffffffffffffffffffffffffffffffffffffffff1673ffffffffffffffffffffffffffffffffffffffff1681526020019081526020016000206007018054600181600116156101000203166002900480601f0160208091040260200160405190810160405280929190818152602001828054600181600116156101000203166002900480156120ec5780601f106120c1576101008083540402835291602001916120ec565b820191906000526020600020905b8154815290600101906020018083116120cf57829003601f168201915b50505050509050919395975091939597565b6000809054906101000a900473ffffffffffffffffffffffffffffffffffffffff1673ffffffffffffffffffffffffffffffffffffffff163373ffffffffffffffffffffffffffffffffffffffff16146121a3576040517f08c379a000000000000000000000000000000000000000000000000000000000815260040180806020018281038252602b81526020018061266b602b913960400191505060405180910390fd5b600073ffffffffffffffffffffffffffffffffffffffff16600260008a73ffffffffffffffffffffffffffffffffffffffff1673ffffffffffffffffffffffffffffffffffffffff16815260200190815260200160002060000160009054906101000a900473ffffffffffffffffffffffffffffffffffffffff1673ffffffffffffffffffffffffffffffffffffffff16141561228b576040517f08c379a000000000000000000000000000000000000000000000000000000000815260040180806020018281038252602c815260200180612707602c913960400191505060405180910390fd5b86600260008a73ffffffffffffffffffffffffffffffffffffffff1673ffffffffffffffffffffffffffffffffffffffff16815260200190815260200160002060010190805190602001906122e19291906125c5565b5085600260008a73ffffffffffffffffffffffffffffffffffffffff1673ffffffffffffffffffffffffffffffffffffffff16815260200190815260200160002060020190805190602001906123389291906125c5565b5084600260008a73ffffffffffffffffffffffffffffffffffffffff1673ffffffffffffffffffffffffffffffffffffffff168152602001908152602001600020600301908051906020019061238f9291906125c5565b5083600260008a73ffffffffffffffffffffffffffffffffffffffff1673ffffffffffffffffffffffffffffffffffffffff16815260200190815260200160002060040190805190602001906123e69291906125c5565b5082600260008a73ffffffffffffffffffffffffffffffffffffffff1673ffffffffffffffffffffffffffffffffffffffff16815260200190815260200160002060050160006101000a81548163ffffffff021916908363ffffffff16021790555081600260008a73ffffffffffffffffffffffffffffffffffffffff1673ffffffffffffffffffffffffffffffffffffffff1681526020019081526020016000206006018190555080600260008a73ffffffffffffffffffffffffffffffffffffffff1673ffffffffffffffffffffffffffffffffffffffff16815260200190815260200160002060070190805190602001906124e59291906125c5565b505050505050505050565b6000600180549050905090565b828054600181600116156101000203166002900490600052602060002090601f016020900481019282601f1061253e57805160ff191683800117855561256c565b8280016001018555821561256c579182015b8281111561256b578251825591602001919060010190612550565b5b5090506125799190612645565b5090565b50805460018160011615610100020316600290046000825580601f106125a357506125c2565b601f0160209004906000526020600020908101906125c19190612645565b5b50565b828054600181600116156101000203166002900490600052602060002090601f016020900481019282601f1061260657805160ff1916838001178555612634565b82800160010185558215612634579182015b82811115612633578251825591602001919060010190612618565b5b5090506126419190612645565b5090565b61266791905b8082111561266357600081600090555060010161264b565b5090565b9056fe53c3b36c6f20656c206f776e65722070756564652068616365722065737461206f706572616369c3b36e2e626f7272617250726f6665736f7241646472202d2050726f6665736f72206e6f2063726561646f2e637265617250726f6665736f72202d2050726f6665736f722079612063726561646f2e6c65657250726f6665736f7241646472202d2050726f6665736f72206e6f2063726561646f2e61637475616c697a617250726f6665736f7241646472202d2050726f6665736f72206e6f2063726561646f2ea265627a7a723158208166d9f5ef3c4abe37c7a4bb91c80ab633675228f404030dcaac61dc77e0bc8764736f6c63430005100032",
  "source": "pragma solidity >=0.5.12 <0.6.0;\n\ncontract UpmProfesores {\n    \n    address public owner;\n    \n    uint8 public numProfesores;\n    address[] public listaProfesores;\n    mapping(address => Profesor) public mapProfesoresAddr;\n    \n    constructor() public {\n        owner = msg.sender;\n    }\n    \n    struct Profesor {\n        address addrEthProf;\n        uint8 indexProf;\n        string nombre;\n        string apellidos;\n        string dni;\n        string correoUpm;\n        uint32 telefMovil;\n        int256 fechaNac;\n        string idUpm;\n    }\n\n    function actualizarOwner(address _newOwner) public soloOwner() {\n        owner = _newOwner;\n    }\n\n    function miDireccion() public view returns(address _miDireccion) {\n        _miDireccion = msg.sender;\n    }\n\n    function profesoresLength() public view returns(uint _profesoresLength) {\n        _profesoresLength = listaProfesores.length;\n    }\n    \n    \n    \n    function crearProfesor(\n        address _addrEthProf,\n        string memory _nombre,\n        string memory _apellidos,\n        string memory _dni,\n        string memory _correoUpm,\n        uint32 _telefMovil,\n        int256 _fechaNac,\n        string memory _idUpm\n    ) public soloOwner() returns(\n        uint8 _indexProf\n    ) {\n        require(mapProfesoresAddr[_addrEthProf].addrEthProf == address(0), \"crearProfesor - Profesor ya creado.\");\n        \n        _indexProf = uint8(listaProfesores.length);\n        \n        mapProfesoresAddr[_addrEthProf] = Profesor(_addrEthProf, _indexProf, _nombre, _apellidos, _dni, _correoUpm, _telefMovil, _fechaNac, _idUpm);\n        \n        listaProfesores.push(_addrEthProf);\n        \n        numProfesores++;\n    }\n    \n    function leerProfesorAddr(\n        address _addrEthProf\n    ) public view returns(\n        uint8 _indexProf, \n        string memory _nombre, \n        string memory _apellidos, \n        string memory _dni, \n        string memory _correoUpm, \n        uint32 _telefMovil, \n        int256 _fechaNac, \n        string memory _idUpm\n    ) {\n        require(mapProfesoresAddr[_addrEthProf].addrEthProf != address(0), \"leerProfesorAddr - Profesor no creado.\");\n        \n        _indexProf = mapProfesoresAddr[_addrEthProf].indexProf;\n        _nombre = mapProfesoresAddr[_addrEthProf].nombre;\n        _apellidos = mapProfesoresAddr[_addrEthProf].apellidos;\n        _dni = mapProfesoresAddr[_addrEthProf].dni;\n        _correoUpm = mapProfesoresAddr[_addrEthProf].correoUpm;\n        _telefMovil = mapProfesoresAddr[_addrEthProf].telefMovil;\n        _fechaNac = mapProfesoresAddr[_addrEthProf].fechaNac;\n        _idUpm = mapProfesoresAddr[_addrEthProf].idUpm;\n    }\n    \n    function actualizarProfesorAddr(\n        address _addrEthProf,\n        string memory _nombre,\n        string memory _apellidos,\n        string memory _dni,\n        string memory _correoUpm,\n        uint32 _telefMovil,\n        int256 _fechaNac,\n        string memory _idUpm\n    ) public soloOwner() {\n        require(mapProfesoresAddr[_addrEthProf].addrEthProf != address(0), \"actualizarProfesorAddr - Profesor no creado.\");\n        \n        mapProfesoresAddr[_addrEthProf].nombre = _nombre;\n        mapProfesoresAddr[_addrEthProf].apellidos = _apellidos;\n        mapProfesoresAddr[_addrEthProf].dni = _dni;\n        mapProfesoresAddr[_addrEthProf].correoUpm = _correoUpm;\n        mapProfesoresAddr[_addrEthProf].telefMovil = _telefMovil;\n        mapProfesoresAddr[_addrEthProf].fechaNac = _fechaNac;\n        mapProfesoresAddr[_addrEthProf].idUpm = _idUpm;\n    }\n    \n    function borrarProfesorAddr(\n        address _addrEthProf\n    ) public soloOwner() {\n        require(mapProfesoresAddr[_addrEthProf].addrEthProf != address(0), \"borrarProfesorAddr - Profesor no creado.\");\n        \n        uint8 _indexProf = mapProfesoresAddr[_addrEthProf].indexProf;\n\n        delete mapProfesoresAddr[_addrEthProf];\n        delete listaProfesores[_indexProf];\n        \n        numProfesores--;\n    }\n\n\n    modifier soloOwner() {\n        require(msg.sender == owner, \"Slo el owner puede hacer esta operacin.\");\n        _;\n    }\n    \n}",
  "sourcePath": "/home/luis/TFM/v1/Asignatura/contracts/UpmProfesores.sol",
  "compiler": {
    "name": "solc",
    "version": "0.5.16+commit.9c3226ce.Emscripten.clang"
  },
  "schemaVersion": "3.0.23",
  "updatedAt": "2020-05-20T02:54:51.278Z",
  "networkType": "ethereum",
  "devdoc": {
    "methods": {}
  },
  "userdoc": {
    "methods": {}
  }
}